:020000040800F2
:10000000600C0020E1010008811300089909000834
:100010007D1300088D060008C938000800000000A4
:10002000000000000000000000000000492B000854
:10003000CD060008000000008925000801310008F5
:10004000FB010008FB010008FB010008FB010008A0
:10005000FB010008FB010008FB010008FB01000890
:10006000FB010008FB010008FB010008FB01000880
:10007000FB010008FB010008FB010008FB01000870
:10008000FB010008FB010008FB010008FB01000860
:10009000FB010008FB010008FB010008FB01000850
:1000A000FB010008FB010008FB010008FB01000840
:1000B000FB010008FB010008FB010008FB01000830
:1000C000FB010008FB010008FB010008FB01000820
:1000D000FB01000861350008FD350008FB01000840
:1000E000FB010008FB010008FB010008FB01000800
:1000F000FB010008FB010008FB010008FB010008F0
:10010000FB010008FB010008FB010008FB010008DF
:100110006D340008B5340008FB010008FB0100083D
:10012000FB010008FB010008FB010008FB010008BF
:1001300000F002F800F045F80AA090E8000C8244B4
:100140008344AAF10107DA4501D100F03AF8AFF291
:10015000090EBAE80F0013F0010F18BFFB1A43F0A5
:10016000010318477CE501009CE50100103A24BF1B
:1001700078C878C1FAD8520724BF30C830C144BF0C
:1001800004680C607047000000230024002500264E
:10019000103A28BF78C1FBD8520728BF30C148BFEA
:1001A0000B607047642900F09980782900F0D280B4
:1001B000732900F00682002070471FB51FBD10B5DF
:1001C00010BD00F031FA1146FFF7F7FF04F040F8D8
:1001D00000F04FFA03B4FFF7F2FF03BC03F098FB03
:1001E0000948804709480047FEE7FEE7FEE7FEE7CB
:1001F000FEE7FEE7FEE7FEE7FEE7FEE70448054907
:10020000054A064B704700008D3100083101000897
:1002100060060020600C00206008002060080020BC
:10022000704700000FB4044910B503AA029800F00B
:10023000CDF910BC5DF814FB1400002070B5044625
:1002400085690068C10601D5302600E02026C00778
:1002500007D070BDD4E9012130469047206A401C88
:1002600020626D1EF6D570BD70B5044685690078B4
:10027000C00707D170BDD4E9012120209047206A32
:10028000401C20626D1EF6D570BD70B50C4605464B
:10029000012A05D02878800600D5EA69002302E00B
:1002A000012305E05B1C934202D2E05C0028F9D1F7
:1002B000A869E618C01AA861286A18442862284666
:1002C000FFF7BCFF04E0D5E9012114F8010B9047CA
:1002D000B442F8D32846FFF7C7FF70BD2DE9F041BF
:1002E0000646002410687529314616A510D0AFF3D4
:1002F0000080002802DA404213A507E031688A072F
:1003000001D512A502E0490704D511A5012401E099
:10031000AFF3008000210A2206F1240709E0B0FBB8
:10032000F2FCB0FBF2F302FB1C00303078541846AC
:10033000491C0028F3D123462A463046BDE8F04147
:1003400000F0D4B8000000002D0000002B000000D9
:100350002000000070B504460D4621461068AFF33A
:1003600000802188090502D50F4A7A4402E00E4A2E
:100370007A440E32002104F1240305E000F00F0658
:100380000009965D5E54491C0028F7D120780023AF
:10039000000704D5702D02D009B102231132204686
:1003A000BDE8704000F0A2B838E301002DE9F05F2D
:1003B000894604464FF0000ADFF824B1FB44C0F838
:1003C00020A02046E168884700287DD0252806D057
:1003D000D4E901219047206A401C2062F1E7002502
:1003E0005F462046E16888472028064607DB312E15
:1003F00005D2B81910F8200C08B10543F1E7A80799
:1004000001D525F00405C4F81CA00027C4F818A0E5
:100410002A2E09D0304603F074FA38B304EB87086B
:10042000303EC8F8186019E059F8041B204604EB68
:1004300087029161E1688847012F064618D1E0697B
:10044000002820DA25F020051DE0D8F8180000EB80
:10045000800006EB40003038C8F818002046E168FC
:100460008847064603F04DFA0028EED1012F0AD046
:100470002E2E08D12046E16888477F1C0646022FB1
:1004800045F02005C4DBA069002803DA404245F0AE
:100490000105A061E80701D025F01005A6B1A6F17D
:1004A0004100192802D8203645F400654A463146F5
:1004B000204625604D46FFF775FE60B1012807D044
:1004C000ED1D25F0070000E007E000F1080978E7DE
:1004D00005F1040975E730467AE7206ABDE8F09F28
:1004E0000EE3010070477047704770472DE9F047F1
:1004F0000D4699469246044600F124080168880694
:1005000004D5E06921F01001216000E00120A8423B
:1005100001DD471B00E00027A1697A1902EB090001
:10052000081AA0612078C00602D42046FFF786FE94
:10053000002608E0D4E901211AF806009047206A55
:10054000401C761C20624E45F4DB2078C0060AD59C
:100550002046FFF773FE06E0D4E9012130209047E2
:10056000206A401C2062381EA7F10107F4DC07E076
:10057000D4E9012118F805009047206A401C206248
:10058000281EA5F10105F3DC2046FFF76DFE20785B
:10059000000602D50220BDE8F0870120FBE710B578
:1005A000436913B1AFF3008001E0FFF76EFE012055
:1005B00010BD127800F124010A7000224A70012255
:1005C000EDE711684FF0FF32E9E70000074B70B527
:1005D0000D467B4400F011F80446284600F020F850
:1005E00010B14FF0FF3070BD204670BD5F3C000081
:1005F00001694A1C02610878704700B58FB0CDE9E7
:1006000001310021059105497944CDE903101146D6
:100610006846FFF7CBFE0FB000BD0000E5FFFFFF0F
:10062000007B00F080007047754600F02BF8AE4666
:1006300005006946534620F00700854618B020B5EE
:10064000FFF7DCFDBDE820404FF000064FF000074B
:100650004FF000084FF0000B21F00701AC46ACE86A
:10066000C009ACE8C009ACE8C009ACE8C0098D46D7
:10067000704710B50446AFF300802046BDE8104037
:10068000FFF7A8BD00487047FC05002000BFFEE74B
:1006900070B505460C460026284602F035F9064698
:1006A00026EA0401284603F011F970BD10B50022B6
:1006B000FD23CC1E8470012203E0845C6340541C43
:1006C000E2B24C1E9442F8DC035510BD70470000A6
:1006D00051B18200A2F1C042126842F001038200CF
:1006E000A2F1C042136009E08200A2F1C042126888
:1006F000034B1A408300A3F1C0431A607047000007
:10070000FEFF0F00D0E901121143C26811430269D4
:1007100011434269114382691143C2691143026A5C
:100720001143426A1143826A1143C26A1143026B48
:10073000114302689200A2F1C04211608168082949
:100740000BD101688900A1F1C041096841F0400264
:1007500001688900A1F1C0410A60416B0968426BE0
:10076000526841EA0211426B926841EA0221426BEF
:10077000928941EA0241426B128A41EA0251426B7C
:10078000127D41EA0261426B926911430268521C78
:100790009200A2F1C0421160C16AB1F5804F1BD135
:1007A000816B0968826B526841EA0211826B926820
:1007B00041EA0221826B128A41EA0251826B127D68
:1007C00041EA0261826B9269114302689200A2F1D0
:1007D000C042C2F8041107E06FF07042016889005E
:1007E000A1F1C041C1F8042170472DE9F041024652
:1007F00000250026002000230024002791F803C0D4
:100800000CF00F0591F803C00CF0100CBCF1000FB8
:1008100003D091F802C04CEA050591F800C0BCF184
:10082000000F31D0146800202BE04FF0010C0CFABF
:1008300000F3B1F800C00CEA03069E4220D1830009
:100840004FF00F0C0CFA03F7BC4305FA03FC4CEA1B
:10085000040491F803C0BCF1280F06D14FF0010C3D
:100860000CFA00FCC2F814C00AE091F803C0BCF115
:10087000480F05D14FF0010C0CFA00FCC2F810C073
:10088000401C0828D1D31460B1F800C0BCF1FF0FA0
:1008900034DD546800202EE000F1080C4FF0010810
:1008A00008FA0CF3B1F800C00CEA03069E4221D10D
:1008B00083004FF00F0C0CFA03F7BC4305FA03FC5E
:1008C0004CEA040491F803C0BCF1280F05D100F1F3
:1008D000080C08FA0CF8C2F8148091F803C0BCF1B7
:1008E000480F07D100F1080C4FF0010808FA0CF886
:1008F000C2F81080401C0828CED35460BDE8F081B7
:10090000F0B50A46002300240021002500F000462F
:10091000B6F1004F02D11D4EF16901E01B4E716826
:10092000C0F3034583B200F44016B6F5401F08D16A
:1009300021F07061154E766826F07066134F7E6068
:1009400012E000F48016B6F5801F06D1032606FAE1
:1009500005F4A14341F0706106E0460D360103FA4B
:1009600006F6B14341F0706122B1460D360103FA3B
:1009700006F6314300F00046B6F1004F02D1034EB7
:10098000F16101E0014E7160F0BD00000000014026
:1009900041617047016170470EE00849C96881F400
:1009A0000061064AD160002001E0411C88B242F299
:1009B00010718842F9DB00BFEFE700000020014022
:1009C0001CB51CA0006801906946522001F071FD21
:1009D0000446262804D06946522001F06AFD0446E8
:1009E000262C26D1684601F092FC262821D1102120
:1009F0001148FFF75BFE9DF800009DF80410884247
:100A000017D19DF801009DF80510884211D19DF87D
:100A100002009DF8061088420BD19DF803009DF856
:100A20000710884205D11021034802F075FD02F03D
:100A300041FF1CBD8AAA81813E0000200948006850
:100A400001280CD10848006848B10748001F006819
:100A500028B105480838006808B101207047002017
:100A6000FCE7000000012142100123420948006810
:100A700001280CD00848006848B90748001F0068E2
:100A800028B105480838006808B1012070470020E7
:100A9000FCE70000000121421001234209480068E0
:100AA00001280CD00848006848B10748001F0068BA
:100AB00028B905480838006808B1012070470020AF
:100AC000FCE70000000121421001234209480068B0
:100AD00001280CD00848006848B10748001F00688A
:100AE00028B105480838006808B90120704700207F
:100AF000FCE7000000012142100123420948006880
:100B000001280CD10848006848B90748001F006850
:100B100028B105480838006808B101207047002056
:100B2000FCE700000001214210012342094800684F
:100B300001280CD00848006848B90748001F006821
:100B400028B905480838006808B10120704700201E
:100B5000FCE70000000121421001234270B5064667
:100B6000002409480588408845430021084600F0D4
:100B7000F5F900F0C7FB00BF03E0304600F0B6FB1C
:100B8000641CAC42F9D370BDEE05002010B50446DC
:100B90007CB90020104988712C2008812A204881C6
:100BA0002B2088814FF4A07008804FF4F0704880AB
:100BB0000EE00120084988712C2008812A204881F4
:100BC0002B2088814FF4F07008804FF4A07048808B
:100BD000002000F02FF910BDEE0500202DE9FF4F99
:100BE00084B081468A460020039002900698A0EBCC
:100BF00009050798A0EB0A06CDF80490CDF800A0EF
:100C0000002D01DD012705E00DB9002702E04FF0BE
:100C1000FF376D42002E02DD4FF0010806E016B9E5
:100C20004FF0000802E04FF0FF387642B54201DD98
:100C30002C4600E034464FF0000B21E0009A91B2C0
:100C4000019A90B200F022F8039828440390029889
:100C5000304402900398A04205DD0398001B0390E6
:100C60000198384401900298A04205DD0298001BCB
:100C700002900098404400900BF101001FFA80FBA5
:100C8000601C8345DADD08B0BDE8F08F30B504465E
:100C90000D462946204600F061F900F033FB02487A
:100CA000008800F023FB30BD64000020F0B504464E
:100CB0000D4616461F462B46324629462046FFF76C
:100CC0008DFF3B46224629462046FFF787FF3B46DD
:100CD000324639462046FFF781FF3B4632462946D9
:100CE0003046FFF77BFFF0BD2DE9F04306460F4687
:100CF0009046002445460320A0EB48093CE07A1BBF
:100D000091B2321990B2FFF7C1FF3A1B91B272193A
:100D100090B2FFF7BBFF3A1991B2721990B2FFF788
:100D2000B5FF7A1991B2321990B2FFF7AFFF7A1975
:100D300091B2321B90B2FFF7A9FF3A1991B2721B20
:100D400090B2FFF7A3FF7A1B91B2321B90B2FFF76C
:100D50009DFF3A1B91B2721B90B2FFF797FF641C84
:100D6000B9F1000F03DAA000801D814404E0601B8C
:100D700080000A3081446D1EAC42C0DDBDE8F083C6
:100D800070B504460D4616460C49488900F0B4FA81
:100D9000201200F0ABFAE0B200F0A8FA0749888907
:100DA00000F0AAFA281200F0A1FAE8B200F09EFAC8
:100DB00002490889314600F0ADFA70BDEE05002009
:100DC0002DE9F04F05460E4617469846DDF824A05B
:100DD0004FF0000B781B401C1FFA80FB344613E0D9
:100DE0002146284600F0BAF800F08CFA4FF00009CE
:100DF00006E0504600F07AFA09F101001FFA80F986
:100E0000D945F6DB601C84B24445E9DDBDE8F08FCE
:100E100010B50246012000E050430B1EA1F1010471
:100E2000E1B2F9D110BD0000014800887047000010
:100E30000008006C70B505460024474880790128F9
:100E400018D1082D15D2DFE805F00406080A0C0EAB
:100E5000101206250DE007250BE0042509E0052505
:100E600007E0012505E0002503E0032501E0022558
:100E700000BF00BF082D1CD2DFE805F00406090CF6
:100E80000F12151800BF14E044F0800411E044F084
:100E900040040EE044F0C0040BE044F0200408E0FD
:100EA00044F0600405E044F0A00402E044F0E004F3
:100EB00000BF00BF2146362000F02CFA04F02000CD
:100EC00068B12548008824494988884214DA2248B4
:100ED0000688408820490880084646800CE01E4865
:100EE00000881D494988884206DD1B4806884088DD
:100EF00019490880084646801749488900F0FCF9DE
:100F0000002000F0F3F9002000F0F0F91249098800
:100F1000491EC1F30F2000F0E9F90F490978491E75
:100F2000C8B200F0E3F90C49888900F0E5F9002027
:100F300000F0DCF9002000F0D9F907494988491E82
:100F4000C1F30F2000F0D2F903498978491EC8B2D5
:100F500000F0CCF970BD0000EE05002000B502469F
:100F60000B460A49488900F0C7F9101200F0BEF993
:100F7000D0B200F0BBF90549888900F0BDF918121C
:100F800000F0B4F9D8B200F0B1F900BDEE050020D0
:100F90002DE9F84F80460E4617461C46009620461F
:100FA000E31704EB5373DB1021464FEAE47C04EBB8
:100FB0005C7C4FEAEC0CA4EBCC0CBCF1000F02D033
:100FC0004FF0010C01E04FF0000C6344224604EBAB
:100FD000D27C4FEA6C0C03FB0CF303F0FF09A7F182
:100FE0002000C7B2002557E0B9F10C0F07D107EB7D
:100FF00047002B4901EB800010F805A013E0102CEE
:1010000005D1284800EB071010F805A00BE0182CBC
:1010100007D107EBC700244901EB800010F805A0B9
:1010200001E0BDE8F88F4FF0000B2FE00AF08000E0
:1010300030B11E48028831464046FFF7A1FE07E066
:101040000A9828B91A48028831464046FFF798FEA8
:101050004FEA4A604FEA106A701C86B21548408811
:10106000B04200DCDDE70098301AA0420AD1009EB1
:1010700008F101001FFA80F80E480088404500DCA6
:10108000CFE706E00BF1010000F0FF0BBBF1080F0A
:10109000CCDB00BF681CC5B24D45A5DB00BFC0E777
:1010A00086C40108FAC80108EACE010864000020DD
:1010B00066000020EE0500202DE9FF4F07460D4693
:1010C0001C46AA462046E21704EB5272D210214673
:1010D000E31704EB5373DB10A4EBC3030BB1012341
:1010E00000E000231A44624302F0FF0B00263CE0BC
:1010F000102C06D11F49029801EB401010F8068011
:1011000001E0BDE8FF8F4FF0000928E008F0800003
:1011100030B11948028829463846FFF731FE07E00A
:101120000D9828B91548028829463846FFF728FE49
:101130004FEA48604FEA1068681C85B21048408842
:10114000A84200DCDDE7A5EB0A00A04203D155462A
:10115000781C87B206E009F1010000F0FF09B9F13F
:10116000080FD3DB00BF701CC6B25E45C0DB00BFFA
:10117000C7E7000046DC010864000020660000208C
:10118000EE0500202DE9F04F04460D4690469946A5
:10119000DDF824B0DA46AFB20FE0A6B207E03AF8C5
:1011A000022B39463046FFF7EBFD701C86B208EB88
:1011B0000400B042F3DC781C87B209EB0500B842AA
:1011C000EBDCBDE8F08F2DE9F84704460D4690466C
:1011D0009946DDE9096704F0FF0A08EB04001FFAED
:1011E00080F809EB05001FFA80F916E0444502DBA0
:1011F0005446A81985B24D4500DB14E0002000904C
:101200003A78334629462046FFF7C2FE304606EBC1
:10121000D07104EB61018CB27F1C38787E2802DC2F
:1012200038782028E2DA00BFBDE8F8872DE9FF4FC3
:1012300082B0064692461F46DDE90F480020019025
:1012400000254DE0781B401EC1B20A20FFF7E0FDEB
:10125000BAFBF0F00A21B0FBF1F201FB1209019890
:1012600050BB781EA84227DDB9F1000F22D108F04B
:10127000800078B108F00100A34604EBDB7149104F
:1012800001FB0561009088B2234630220399FFF7E5
:101290007FFE0EE008F00100A34604EBDB7149106D
:1012A00001FB0561009088B2234620220399FFF7D5
:1012B0006FFE13E00120019008F00100A34604EB4B
:1012C000DB71491001FB0561009088B209F1300122
:1012D000CAB223460399FFF75BFE00BF681CC5B284
:1012E000BD42AFDB06B0BDE8F08F000001490880C9
:1012F000704700000008006C01490880704700003A
:10130000FE07006C00B502490889FFF7F5FF00BD34
:10131000EE05002000B503460A461846FFF7ECFF2D
:101320001046FFF7E3FF00BD10B50446412C24D161
:1013300008210846FFF7ACF93D21112002F0C6FA5A
:101340008621172002F0C2FA7F21262002F0BEFA81
:101350001E212D2002F0BAFA00212C2002F0B6FA4C
:101360008D212A2002F0B2FA3E212B2002F0AEFAA3
:10137000022002F059FF00F0BDFF10BD00BFFEE7E4
:10138000704710B5ED20FFF7B7FF0120FFF7AEFF64
:10139000FE20FFF7ABFFEE20FFF7AEFFDE20FFF7EA
:1013A000A5FF2120FFF7A2FFF120FFF7A5FF0120F5
:1013B000FFF79CFFDF20FFF79FFF1020FFF796FF4E
:1013C000C420FFF799FF8F20FFF790FFC620FFF79B
:1013D00093FF0020FFF78AFFE220FFF787FFE2205C
:1013E000FFF784FFE220FFF781FFBF20FFF784FFB4
:1013F000AA20FFF77BFFB020FFF77EFF0D20FFF74D
:1014000075FF0020FFF772FF0D20FFF76FFF002030
:10141000FFF76CFF1120FFF769FF0020FFF766FF61
:101420001920FFF763FF0020FFF760FF2120FFF77F
:101430005DFF0020FFF75AFF2D20FFF757FF002028
:10144000FFF754FF3D20FFF751FF0020FFF74EFF4D
:101450005D20FFF74BFF0020FFF748FF5D20FFF7FF
:1014600045FF0020FFF742FFB120FFF745FF802036
:10147000FFF73CFF0020FFF739FF8B20FFF736FF17
:101480000020FFF733FF9620FFF730FF0020FFF723
:101490002DFFB220FFF730FF0020FFF727FF0020CD
:1014A000FFF724FF0220FFF721FF0020FFF71EFFB8
:1014B0000320FFF71BFF0020FFF718FFB320FFF703
:1014C0001BFF0020FFF712FF0020FFF70FFF002097
:1014D000FFF70CFF0020FFF709FF0020FFF706FFD2
:1014E0000020FFF703FF0020FFF700FF0020FFF7B9
:1014F000FDFE0020FFF7FAFE0020FFF7F7FE0020B8
:10150000FFF7F4FE0020FFF7F1FE0020FFF7EEFEEC
:101510000020FFF7EBFE0020FFF7E8FE0020FFF7BA
:10152000E5FE0020FFF7E2FE0020FFF7DFFE0020CF
:10153000FFF7DCFE0020FFF7D9FE0020FFF7D6FE04
:101540000020FFF7D3FE0020FFF7D0FE0020FFF7BA
:10155000CDFEB420FFF7D0FE8B20FFF7C7FE0020A2
:10156000FFF7C4FE9620FFF7C1FE0020FFF7BEFE86
:10157000A120FFF7BBFE0020FFF7B8FEB520FFF764
:10158000BBFE0220FFF7B2FE0020FFF7AFFE0320F4
:10159000FFF7ACFE0020FFF7A9FE0420FFF7A6FE30
:1015A0000020FFF7A3FEB620FFF7A6FE0020FFF7FE
:1015B0009DFE0020FFF79AFEB720FFF79DFE00205A
:1015C000FFF794FE0020FFF791FE3F20FFF78EFE0D
:1015D0000020FFF78BFE5E20FFF788FE0020FFF75C
:1015E00085FE6420FFF782FE0020FFF77FFE8C203F
:1015F000FFF77CFE0020FFF779FEAC20FFF776FEB8
:101600000020FFF773FEDC20FFF770FE0020FFF7DD
:101610006DFE7020FFF76AFE0020FFF767FE902046
:10162000FFF764FE0020FFF761FEEB20FFF75EFE90
:101630000020FFF75BFEDC20FFF758FE0020FFF7DD
:1016400055FEB820FFF758FE0020FFF74FFE0020A0
:10165000FFF74CFE0020FFF749FE0020FFF746FE93
:101660000020FFF743FE0020FFF740FE0020FFF7B9
:101670003DFE0020FFF73AFEBA20FFF73DFE242092
:10168000FFF734FE0020FFF731FE0020FFF72EFEAB
:101690000020FFF72BFEC120FFF72EFE2020FFF7D2
:1016A00025FE0020FFF722FE5420FFF71FFE00203A
:1016B000FFF71CFEFF20FFF719FE0020FFF716FEC4
:1016C000C220FFF719FE0A20FFF710FE0020FFF7E7
:1016D0000DFE0420FFF70AFE0020FFF707FEC320DF
:1016E000FFF70AFE3C20FFF701FE0020FFF7FEFD9A
:1016F0003A20FFF7FBFD0020FFF7F8FD3920FFF748
:10170000F5FD0020FFF7F2FD3720FFF7EFFD002089
:10171000FFF7ECFD3C20FFF7E9FD0020FFF7E6FDB9
:101720003620FFF7E3FD0020FFF7E0FD3220FFF752
:10173000DDFD0020FFF7DAFD2F20FFF7D7FD0020A9
:10174000FFF7D4FD2C20FFF7D1FD0020FFF7CEFDE1
:101750002920FFF7CBFD0020FFF7C8FD2620FFF76B
:10176000C5FD0020FFF7C2FD2420FFF7BFFD0020CC
:10177000FFF7BCFD2420FFF7B9FD0020FFF7B6FD01
:101780002320FFF7B3FD0020FFF7B0FD3C20FFF75B
:10179000ADFD0020FFF7AAFD3620FFF7A7FD0020D2
:1017A000FFF7A4FD3220FFF7A1FD0020FFF79EFD0B
:1017B0002F20FFF79BFD0020FFF798FD2C20FFF75F
:1017C00095FD0020FFF792FD2920FFF78FFD0020F7
:1017D000FFF78CFD2620FFF789FD0020FFF786FD2F
:1017E0002420FFF783FD0020FFF780FD2420FFF772
:1017F0007DFD0020FFF77AFD2320FFF777FD002015
:10180000FFF774FDC420FFF777FD6220FFF76EFD40
:101810000020FFF76BFD0520FFF768FD0020FFF7B4
:1018200065FD8420FFF762FD0020FFF75FFDF020DB
:10183000FFF75CFD0020FFF759FD1820FFF756FD6C
:101840000020FFF753FDA420FFF750FD0020FFF715
:101850004DFD1820FFF74AFD0020FFF747FD5020FF
:10186000FFF744FD0020FFF741FD0C20FFF73EFD90
:101870000020FFF73BFD1720FFF738FD0020FFF7A2
:1018800035FD9520FFF732FD0020FFF72FFDF320F7
:10189000FFF72CFD0020FFF729FDE620FFF726FDCE
:1018A0000020FFF723FDC520FFF726FD3220FFF7BC
:1018B0001DFD0020FFF71AFD4420FFF717FD002053
:1018C000FFF714FD6520FFF711FD0020FFF70EFD67
:1018D0007620FFF70BFD0020FFF708FD8820FFF7BB
:1018E00005FD0020FFF702FDC620FFF705FD2020C3
:1018F000FFF7FCFC0020FFF7F9FC1720FFF7F6FCD0
:101900000020FFF7F3FC0120FFF7F0FC0020FFF7B9
:10191000EDFCC720FFF7F0FC0020FFF7E7FC0020FC
:10192000FFF7E4FC0020FFF7E1FC0020FFF7DEFCFE
:10193000C820FFF7E1FC0020FFF7D8FC0020FFF7EC
:10194000D5FC0020FFF7D2FC0020FFF7CFFCC92018
:10195000FFF7D2FC0020FFF7C9FC0020FFF7C6FC10
:101960000020FFF7C3FC0020FFF7C0FC0020FFF7BA
:10197000BDFC0020FFF7BAFC0020FFF7B7FC0020F9
:10198000FFF7B4FC0020FFF7B1FC0020FFF7AEFC2E
:101990000020FFF7ABFC0020FFF7A8FC0020FFF7BA
:1019A000A5FC0020FFF7A2FC0020FFF79FFC002011
:1019B000FFF79CFCE020FFF79FFC1620FFF796FC4A
:1019C0000020FFF793FC1C20FFF790FC0020FFF79E
:1019D0008DFC2120FFF78AFC0020FFF787FC3620D2
:1019E000FFF784FC0020FFF781FC4620FFF77EFC18
:1019F0000020FFF77BFC5220FFF778FC0020FFF768
:101A000075FC6420FFF772FC0020FFF76FFC7A2062
:101A1000FFF76CFC0020FFF769FC8B20FFF766FCEA
:101A20000020FFF763FC9920FFF760FC0020FFF720
:101A30005DFCA820FFF75AFC0020FFF757FCB920F7
:101A4000FFF754FC0020FFF751FCC420FFF74EFCC9
:101A50000020FFF74BFCCA20FFF748FC0020FFF7EF
:101A600045FCD220FFF742FC0020FFF73FFCD920C5
:101A7000FFF73CFC0020FFF739FCE020FFF736FCC5
:101A80000020FFF733FCF320FFF730FC0020FFF7C6
:101A90002DFCE120FFF730FC1620FFF727FC00208B
:101AA000FFF724FC1C20FFF721FC0020FFF71EFCA1
:101AB0002220FFF71BFC0020FFF718FC3620FFF761
:101AC00015FC0020FFF712FC4520FFF70FFC00205B
:101AD000FFF70CFC5220FFF709FC0020FFF706FC83
:101AE0006420FFF703FC0020FFF700FC7A20FFF7DB
:101AF000FDFB0020FFF7FAFB8B20FFF7F7FB002030
:101B0000FFF7F4FB9920FFF7F1FB0020FFF7EEFB56
:101B1000A820FFF7EBFB0020FFF7E8FBB920FFF759
:101B2000E5FB0020FFF7E2FBC420FFF7DFFB00200E
:101B3000FFF7DCFBCA20FFF7D9FB0020FFF7D6FB3D
:101B4000D220FFF7D3FB0020FFF7D0FBD820FFF710
:101B5000CDFB0020FFF7CAFBE020FFF7C7FB00200A
:101B6000FFF7C4FBF320FFF7C1FB0020FFF7BEFB2C
:101B7000E220FFF7C1FB0520FFF7B8FB0020FFF7CD
:101B8000B5FB0B20FFF7B2FB0020FFF7AFFB1B20DC
:101B9000FFF7ACFB0020FFF7A9FB3420FFF7A6FB03
:101BA0000020FFF7A3FB4420FFF7A0FB0020FFF776
:101BB0009DFB4F20FFF79AFB0020FFF797FB61206A
:101BC000FFF794FB0020FFF791FB7920FFF78EFBD6
:101BD0000020FFF78BFB8820FFF788FB0020FFF732
:101BE00085FB9720FFF782FB0020FFF77FFBA620F5
:101BF000FFF77CFB0020FFF779FBB720FFF776FBB0
:101C00000020FFF773FBC220FFF770FB0020FFF7F7
:101C10006DFBC720FFF76AFB0020FFF767FBD120B1
:101C2000FFF764FB0020FFF761FBD620FFF75EFBA8
:101C30000020FFF75BFBDD20FFF758FB0020FFF7DC
:101C400055FBF320FFF752FB0020FFF74FFBE3208B
:101C5000FFF752FB0520FFF749FB0020FFF746FB8B
:101C60000A20FFF743FB0020FFF740FB1C20FFF793
:101C70003DFB0020FFF73AFB3320FFF737FB002046
:101C8000FFF734FB4420FFF731FB0020FFF72EFB6A
:101C90005020FFF72BFB0020FFF728FB6220FFF707
:101CA00025FB0020FFF722FB7820FFF71FFB002019
:101CB000FFF71CFB8820FFF719FB0020FFF716FB3E
:101CC0009720FFF713FB0020FFF710FBA620FFF77C
:101CD0000DFB0020FFF70AFBB720FFF707FB0020F2
:101CE000FFF704FBC220FFF701FB0020FFF7FEFA1D
:101CF000C720FFF7FBFA0020FFF7F8FAD120FFF723
:101D0000F5FA0020FFF7F2FAD520FFF7EFFA0020EE
:101D1000FFF7ECFADD20FFF7E9FA0020FFF7E6FA1B
:101D2000F320FFF7E3FA0020FFF7E0FAE420FFF7E3
:101D3000E3FA0120FFF7DAFA0020FFF7D7FA0120D3
:101D4000FFF7D4FA0020FFF7D1FA0220FFF7CEFA0E
:101D50000020FFF7CBFA2A20FFF7C8FA0020FFF790
:101D6000C5FA3C20FFF7C2FA0020FFF7BFFA4B206C
:101D7000FFF7BCFA0020FFF7B9FA5D20FFF7B6FACB
:101D80000020FFF7B3FA7420FFF7B0FA0020FFF746
:101D9000ADFA8420FFF7AAFA0020FFF7A7FA9320F4
:101DA000FFF7A4FA0020FFF7A1FAA220FFF79EFA9E
:101DB0000020FFF79BFAB320FFF798FA0020FFF707
:101DC00095FABE20FFF792FA0020FFF78FFAC420A1
:101DD000FFF78CFA0020FFF789FACD20FFF786FA8B
:101DE0000020FFF783FAD320FFF780FA0020FFF7E7
:101DF0007DFADD20FFF77AFA0020FFF777FAF3206B
:101E0000FFF774FA0020FFF771FAE520FFF774FA84
:101E10000020FFF76BFA0020FFF768FA0020FFF7B9
:101E200065FA0020FFF762FA0220FFF75FFA002050
:101E3000FFF75CFA2920FFF759FA0020FFF756FA5E
:101E40003C20FFF753FA0020FFF750FA4B20FFF732
:101E50004DFA0020FFF74AFA5D20FFF747FA00200D
:101E6000FFF744FA7420FFF741FA0020FFF73EFA2B
:101E70008420FFF73BFA0020FFF738FA9320FFF7A2
:101E800035FA0020FFF732FAA220FFF72FFA0020E0
:101E9000FFF72CFAB320FFF729FA0020FFF726FA04
:101EA000BE20FFF723FA0020FFF720FAC420FFF737
:101EB0001DFA0020FFF71AFACD20FFF717FA0020CD
:101EC000FFF714FAD320FFF711FA0020FFF70EFAFC
:101ED000DC20FFF70BFA0020FFF708FAF320FFF7EA
:101EE00005FA0020FFF702FAE620FFF705FA1120B5
:101EF000FFF7FCF90020FFF7F9F93420FFF7F6F9B6
:101F00000020FFF7F3F95620FFF7F0F90020FFF764
:101F1000EDF97620FFF7EAF90020FFF7E7F97720DF
:101F2000FFF7E4F90020FFF7E1F96620FFF7DEF99B
:101F30000020FFF7DBF98820FFF7D8F90020FFF732
:101F4000D5F99920FFF7D2F90020FFF7CFF9BB2090
:101F5000FFF7CCF90020FFF7C9F99920FFF7C6F980
:101F60000020FFF7C3F96620FFF7C0F90020FFF754
:101F7000BDF95520FFF7BAF90020FFF7B7F9552052
:101F8000FFF7B4F90020FFF7B1F94520FFF7AEF9EC
:101F90000020FFF7ABF94320FFF7A8F90020FFF777
:101FA000A5F94420FFF7A2F90020FFF79FF9E720E9
:101FB000FFF7A2F93220FFF799F90020FFF796F911
:101FC0005520FFF793F90020FFF790F97620FFF7EF
:101FD0008DF90020FFF78AF96620FFF787F90020C6
:101FE000FFF784F96720FFF781F90020FFF77EF9FA
:101FF0006720FFF77BF90020FFF778F98720FFF7CC
:1020000075F90020FFF772F99920FFF76FF90020AA
:10201000FFF76CF9BB20FFF769F90020FFF766F9BD
:102020009920FFF763F90020FFF760F97720FFF7A9
:102030005DF90020FFF75AF94420FFF757F9002017
:10204000FFF754F95620FFF751F90020FFF74EF93A
:102050002320FFF74BF90020FFF748F93320FFF763
:1020600045F90020FFF742F94520FFF73FF900202E
:10207000FFF73CF9E820FFF73FF90020FFF736F9BA
:102080000020FFF733F99920FFF730F90020FFF720
:102090002DF98720FFF72AF90020FFF727F988207C
:1020A000FFF724F90020FFF721F97720FFF71EF949
:1020B0000020FFF71BF96620FFF718F90020FFF753
:1020C00015F98820FFF712F90020FFF70FF9AA2071
:1020D000FFF70CF90020FFF709F9BB20FFF706F91D
:1020E0000020FFF703F99920FFF700F90020FFF720
:1020F000FDF86620FFF7FAF80020FFF7F7F8552003
:10210000FFF7F4F80020FFF7F1F85520FFF7EEF89D
:102110000020FFF7EBF84420FFF7E8F80020FFF776
:10212000E5F84420FFF7E2F80020FFF7DFF855203C
:10213000FFF7DCF80020FFF7D9F8E920FFF7DCF81B
:10214000AA20FFF7D3F80020FFF7D0F80020FFF710
:10215000CDF80020FFF7CAF80020FFF7CDF8AA203D
:10216000FFF7C4F8CF20FFF7C7F80020FFF7BEF84D
:102170000020FFF7BBF80020FFF7B8F80020FFF7BA
:10218000B5F80020FFF7B2F80020FFF7AFF8002005
:10219000FFF7ACF80020FFF7A9F80020FFF7A6F83A
:1021A0000020FFF7A3F80020FFF7A0F80020FFF7BA
:1021B0009DF80020FFF79AF80020FFF797F800201D
:1021C000FFF794F80020FFF791F80020FFF78EF852
:1021D000F020FFF791F80020FFF788F85020FFF774
:1021E00085F80020FFF782F80020FFF77FF8002035
:1021F000FFF77CF8F320FFF77FF80020FFF776F871
:10220000F920FFF779F80620FFF770F81020FFF7A4
:102210006DF82920FFF76AF80020FFF767F83A20E9
:10222000FFF76AF85520FFF761F81120FFF764F80F
:10223000642001F0F3FF2920FFF75EF83520FFF757
:102240005BF80020FFF752F85120FFF755F8FF2008
:10225000FFF74CF85320FFF74FF82C20FFF746F814
:102260005520FFF749F88220FFF740F810BD000025
:1022700070B5002100230F22C47804B3154C2468E4
:1022800004F4E064C4F5E064210AC1F10403CA4027
:10229000447804FA03F184781440214309010E4C78
:1022A0000678A155047804F01F050124AC40057898
:1022B0006D11AD0005F1E025C5F8004109E0047895
:1022C00004F01F050124AC40044D0678761145F852
:1022D000264070BD0CED00E000E400E080E100E08D
:1022E00002490143024A1160704700000000FA05EC
:1022F0000CED00E010B5142000F006FB044604F0DD
:10230000030018B90321142000F01FFC10BDF0B524
:1023100087B00546002708210846FEF7B9F90021D5
:102320000D2001F0D3FA80210E20FEF7B1F99320A1
:102330008DF8080020208DF8090001A802AB0222C8
:1023400002A900900C2000F01BF80646262E10D1A2
:10235000002407E002A8005D285502A8005D474060
:10236000601CC4B2042CF5DB02A8005DB84200D0AA
:10237000BB2680210E2000F0E8FB304607B0F0BD00
:102380002DE9FE4F0646884691469A46DDF830B064
:10239000BB2002900020019000900C2E06D00E2E43
:1023A00009D1122001901020009005E077200190C3
:1023B0003020009000E000BF00BF019840F0800195
:1023C000022001F083FA80210420FEF761F9002148
:1023D000012001F07BFA80210A2000F0B6FB0025E5
:1023E00005E018F80510092001F070FA6D1C4D4544
:1023F000F7D33146012001F069FA0C2E03D1802178
:102400000D2000F0A2FB4FF47A7500BF042000F00D
:102410007BFA04466D1E35B104F0010018B900982E
:1024200020400028F2D080210D20FEF731F995B32D
:10243000062000F069FA00F01B0068BB262002901D
:102440000198204000F0010008B1CC2002900C2E31
:1024500024D10A2000F058FA04460C2000F054FA67
:1024600000F007072FB1601E07EBC000CBF800009B
:1024700002E0E000CBF8000004B90124122C00DDDA
:102480001224002505E0092000F03EFA0AF80500B4
:102490006D1CA542F7D301E0BB20029080210C20E7
:1024A00000F053FB0021012001F010FA0298BDE872
:1024B000FE8F70B588B005460C4608210846FEF729
:1024C000E7F807210D2001F001FA0321142000F0A4
:1024D0003CFB8DF80C5002A803AB012203A900902D
:1024E0000C20FFF74DFF0646262E09D10298102832
:1024F00006D19DF80C0020709DF80D00607000E082
:10250000BB26304608B070BD10B501201C490860DC
:102510000A2001F089FE00201A49C1F89C010A2016
:1025200001F082FE0120164908600A2001F07CFEBD
:102530000F21012001F0CAF900BF012000F0E4F9E9
:1025400000F010000028F8D10A2001F06DFE3D21B6
:10255000112001F0BBF91E212D2001F0B7F9002157
:102560002C2001F0B3F98D212A2001F0AFF93E2192
:102570002B2001F0ABF94021152001F0A7F910BD87
:102580009C812142008021427047000010B506A0C6
:10259000FDF748FE07A0FDF745FE10A0FDF742FE3F
:1025A00015A0FDF73FFE10BDB2D9D7F7CCE1CABEEA
:1025B0003A0D0A00312EB1BEB3CCD0F2D6D0A3ACC6
:1025C000C3BF3330306D7320445330BAECB5C6B757
:1025D000ADD7AAD2BBB4CE0D0A000000322EC7EB95
:1025E000CAE4C8EBCAFDBEDDA3ACB2A2B5E3BBF73B
:1025F000B7A2CBCD0D0A00000D0A0D0A00000000A5
:1026000070B517480468001D0568001D066823465C
:102610002A46314613A0FDF705FE20A0FDF702FE75
:102620001FA0FDF7FFFD2EA135A0FDF7FBFD39A191
:1026300039A0FDF7F7FD3DA13FA0FDF7F3FD43A154
:1026400047A0FDF7EFFD00230522032149A0FDF778
:10265000E9FD56A0FDF7E6FD11A0FDF7E3FD70BD15
:10266000E8F7FF1F0D0A435055203A2053544D33CD
:1026700032463130335A4554362C204C5146503175
:1026800034342C20554944203D202530385820250D
:1026900030385820253038580A0D00000D0A000047
:1026A0002A2A2A2A2A2A2A2A2A2A2A2A2A2A2A2A8A
:1026B0002A2A2A2A2A2A2A2A2A2A2A2A2A2A2A2A7A
:1026C0002A2A2A2A2A2A2A2A2A2A2A2A2A2A2A2A6A
:1026D0002A2A2A2A2A2A2A2A2A2A2A2A2A0D0A00C1
:1026E00057534E45505F5631302D3030355FB4AEC4
:1026F000BFDA31A3A8B4F2D3A1CAB5D1E9A3A90026
:102700002A20C0FDB3CCC3FBB3C62020203A20252D
:10271000730D0A00312E30002A20C0FDB3CCB0E684
:10272000B1BE2020203A2025730D0A003230323409
:102730002D30332D323200002A20B7A2B2BCC8D5CA
:10274000C6DA2020203A2025730D0A00B8B6D1E061
:10275000BBAA5F32333530373133323234000000B8
:102760002A20CCE1BDBBD5DF20202020203A202527
:10277000730D0A002A20B9CCBCFEBFE2B0E6B1BEA0
:10278000203A205625642E25642E25642028535493
:102790004D3332463130785F5374645065726970DE
:1027A000685F447269766572290D0A002A200D0A55
:1027B0000000000029B1064A52690243044B5A61E5
:1027C00004E0034A52698243014B5A61704700009A
:1027D0000010024029B1064AD2690243044BDA6173
:1027E00004E0034AD2698243014BDA61704700007A
:1027F0000010024029B1064A12690243044B1A61D3
:1028000004E0034A12698243014B1A6170470000D9
:102810000010024029B1064A92690243044B9A61B2
:1028200004E0034A92698243014B9A6170470000B9
:102830000010024030B500210022002400232D4D5D
:102840006D6805F00C0121B1042905D0082923D1B8
:1028500005E0294D056022E0274D05601FE0254D6C
:102860006D6805F47012234D6D6805F480340225FF
:1028700005EB92421CB9214D554305600BE01D4DFF
:102880006D6805F400351DB11C4D5543056002E02F
:10289000194D5543056002E0174D056000BF00BFAC
:1028A000144D6D6805F0F0010909154D6B5C056864
:1028B000DD4045600F4D6D6805F4E061090A104D7B
:1028C0006B5C4568DD4085600A4D6D6805F46051BC
:1028D000C90A0B4D6B5C4568DD40C560054D6D68F0
:1028E00005F44041890B074D6B5CC568B5FBF3F5FA
:1028F000056130BD0010024000127A0000093D0061
:102900007C0000208C00002070B5044600267E204C
:1029100000EA440040F0800500200749086028468E
:1029200000F0CEF800F0C6F8064601200349C1F8D1
:102930009801304670BD00009881234200802342F8
:1029400021B1028842F04002028004E002884FF682
:10295000BF731A400280704738B504463C48844231
:1029600037D101210420FFF755FF2020ADF80000EA
:1029700003208DF8020018208DF8030069463548C1
:10298000FDF733FF20213348FEF704F84020ADF86F
:10299000000003208DF8020018208DF8030069461E
:1029A0002C48FDF722FF40212A48FDF7F3FF802045
:1029B000ADF8000003208DF8020018208DF8030008
:1029C00069462448FDF711FF80212248FDF7E2FF08
:1029D0003CE001210820FFF71DFF4FF40050ADF847
:1029E000000003208DF8020018208DF803006946CE
:1029F0001948FDF7FAFE4FF400511748FDF7CAFFDA
:102A00004FF48040ADF8000003208DF8020018203C
:102A10008DF8030069461048FDF7E7FE4FF480414A
:102A20000D48FDF7B7FF4FF40040ADF8000003205C
:102A30008DF8020018208DF8030069460648FDF75E
:102A4000D4FE4FF400410448FDF7A4FF38BD000058
:102A50000030014000080140000C01400246002007
:102A600013890B400BB1012000E0002070470146A4
:102A7000888970478181704710B50022028802F46E
:102A800041520B884C8823438C882343CC882343B2
:102A90000C8923434C8923438C892343CC892343CA
:102AA0001A430280838B4FF2FF74234083830B8A87
:102AB000038210BD10B5FF2000F002F810BD000029
:102AC00010B504462146024800F016F810BD00007B
:102AD0000030014010B504460648844204D101216B
:102AE0008014FFF797FE03E001218803FFF772FED1
:102AF00010BD00000030014070B505460E460024B0
:102B000005E0601CC4B2C82C01DD002070BD0221AC
:102B10002846FFF7A3FF0028F3D031462846FFF7E9
:102B2000A9FF002405E0601CC4B2C82C01DD002010
:102B3000ECE701212846FFF791FF0028F3D0284653
:102B4000FFF795FFC0B2E1E7704770B505460C4648
:102B500000262846FFF7D8FE064646EA0401284626
:102B600000F0B4FE70BD10B500F002F810BD00001A
:102B70000CB50020019000903348006840F480308C
:102B80003149086000BF3048006800F40030009010
:102B90000198401C0190009818B90198B0F5A06FF9
:102BA000F1D12948006800F4003010B101200090F4
:102BB00001E0002000900098012843D123480068DC
:102BC00040F01000214908600846006820F003002A
:102BD00008600846006840F0020008601A48406833
:102BE000194948600846406848600846406840F413
:102BF000806048600846406820F47C1048600846C1
:102C0000406840F4E81048600846006840F0807072
:102C1000086000BF0C48006800F000700028F9D080
:102C20000948406820F003000749486008464068AA
:102C300040F00200486000BF0348406800F00C000C
:102C40000828F9D10CBD000000100240002002400D
:102C500008B543F233304FF4F0734FF4A072002103
:102C600000900846FEF7ACF84FF6FF7040F2BD1337
:102C700040F21312232100903220FEF7A1F84FF604
:102C8000FF70FE49088043F23330FD4908804FF65B
:102C9000FF7008804FF4EB734FF49B720A210846D3
:102CA000FEF704F840F2DB1340F23B120521084620
:102CB000FDF7FCFF052214210846FEF715F8052252
:102CC0004FF4E6711420FEF70FF805224FF4E67179
:102CD0004FF49670FEF708F8052214214FF4967011
:102CE000FEF702F8E74849232F2223210090E6202F
:102CF000FEF748FAE4484B231A464FF49B710090C4
:102D0000B420FEF73FFA43F23330DD490880DF4854
:102D100019231A469B2100903220FEF733FA002037
:102D200010231422A02100905020FEF7C5F90020A6
:102D300010231522A02100906020FEF7BDF900208D
:102D400010231622A02100907020FEF7B5F9002074
:102D500010231722A0210090A820FEF7ADF9002033
:102D600010231822A0210090B020FEF7A5F9002022
:102D700010231922A0210090B820FEF79DF943F2FC
:102D80003330BF490880C24819231A465F2100909A
:102D90003220FEF7F7F9002010230A226421009068
:102DA0005020FEF789F9002010230B2264210090A7
:102DB0006020FEF781F9002010230C22642100908E
:102DC0007020FEF779F9002010232E226421009054
:102DD0009020FEF7DDF8002010230D2264210090E2
:102DE000A320FEF769F9AB4819231A467D2100900C
:102DF0003220FEF7C7F9002010230E228221009016
:102E00005020FEF759F9002010230B228221009058
:102E10006020FEF751F9002010230C22822100903F
:102E20007020FEF749F9002010232E228221009005
:102E30009020FEF7ADF8002010231122822100908F
:102E4000A320FEF739F900201023122282210090DE
:102E5000B020FEF731F900201023132282210090C8
:102E6000B820FEF729F98C4819231A46B921009099
:102E70003220FEF787F9002010231A22BE2100908D
:102E80005020FEF719F9002010231B22BE210090CC
:102E90006020FEF711F9002010231C22BE210090B3
:102EA0007020FEF709F9002010231D22BE2100909A
:102EB0008020FEF701F9002010231E22BE21009081
:102EC0009020FEF7F9F8002010231F22BE21009069
:102ED000B820FEF7F1F8002010232022BE21009038
:102EE000C020FEF7E9F8002010232122BE21009027
:102EF000C820FEF7E1F8694819231A46D721009047
:102F00003220FEF73FF9002010232D22DC21009013
:102F10005020FEF7D1F8002010232E22DC21009053
:102F20005A20FEF7C9F8002010232F22DC21009040
:102F30006420FEF7C1F8002010233022DC2100902D
:102F40006E20FEF7B9F8002010233122DC2100901A
:102F50007320FEF7B1F8002010231E22DC21009020
:102F60007D20FEF7A9F8002010233222DC210090FA
:102F70009C20FEF7A1F8002010233322DC210090D2
:102F8000A820FEF799F8002010233422DC210090BD
:102F9000B020FEF791F8002010233522DC210090AC
:102FA000B820FEF789F8002010233622DC2100909B
:102FB000C020FEF781F80020102344224FF48171D5
:102FC00000905020FEF778F80020102345224FF49F
:102FD000817100906020FEF76FF8002010234622D8
:102FE0004FF4817100907020FEF766F800201023E6
:102FF00044224FF4907100905020FEF75DF80020BD
:10300000102345224FF4907100906020FEF754F891
:103010000020102347224FF4907100907020FEF79B
:103020004BF80020102348224FF49F71009050204D
:10303000FEF742F80020102349224FF49F710090C0
:103040006020FEF739F8002010234C224FF49F71C6
:1030500000907020FEF730F8002010234A224FF431
:10306000AE7100905020FEF727F8002010234B226D
:103070004FF4AE710090602012E000006600002066
:1030800064000020207B00082ECE0008BA580008FB
:10309000E64E0008D0530008A45D00088E620008C8
:1030A000FEF70AF8002010234C224FF4AE71009076
:1030B0007020FEF701F8002010234D224FF4BD715F
:1030C00000905020FDF7F8FF002010234E224FF40F
:1030D000BD7100906020FDF7EFFF002010234F220C
:1030E0004FF4CC7100905020FDF7E6FF0020102334
:1030F00050224FF4CC7100906020FDF7DDFF08BD39
:1031000010B500F001F810BD10B51B48006840B1C3
:1031100019480068401E1849086010B90120174975
:103120000870002408E004EB4401154A02EB81001A
:1031300001F017F8601CC4B2042CF4DB11480068DD
:10314000401C10490860084600686FF00041884242
:1031500002D100200B49086001F002F80A4800780B
:10316000401CC0B2084908700A2803DB0020087020
:1031700000F0F2FF10BD000000000020040000205D
:1031800090000020080000200C00002010B513481B
:10319000006840F001001149086008464068104985
:1031A00008400E494860084600680E4908400B492F
:1031B00008600846006820F48020086008464068DF
:1031C00020F4FE0048604FF41F008860FFF7CBFC3E
:1031D0004FF000600449086010BD0000001002407C
:1031E0000000FFF8FFFFF6FE08ED00E000B59DB01F
:1031F00001200790002008900F20099000200A90DD
:103200000B900C900D9000900190032002900020F4
:10321000039004900590069006200E9000200F90D9
:10322000109010201190002012901490139015907F
:1032300016904FF480501790002018904FF4804063
:10324000199000201A9007A81B90CDF870D00EA8F6
:10325000FDF758FA01210620FDF73AFA1DB000BD2E
:1032600008B501210802FFF7A5FA01214FF4B47057
:10327000FFF7D0FA0120ADF8000010208DF8030010
:1032800003208DF8020069465848FDF7AEFA182071
:103290008DF8030003208DF802004FF48050ADF844
:1032A000000069465248FDF7A0FA0120ADF8000081
:1032B00069464F48FDF799FA4FF48050ADF8000089
:1032C00069464B48FDF791FA2020ADF800006946A9
:1032D0004848FDF78AFA1020ADF8000069464548D5
:1032E000FDF783FA18208DF8030003208DF8020003
:1032F0004FF48040ADF8000069463E48FDF775FA8E
:103300004FF40040ADF8000069463A48FDF76DFA09
:103310000120ADF8000069463648FDF766FA022044
:10332000ADF8000069463348FDF75FFA8020ADF83C
:10333000000069463048FDF758FA4FF48070ADF848
:10334000000069462C48FDF750FA4FF40070ADF8C4
:10335000000069462848FDF748FA4FF48060ADF850
:10336000000069462448FDF740FA4FF40060ADF8CC
:10337000000069462048FDF738FA4FF48050ADF858
:10338000000069461C48FDF730FA4FF40050ADF8D4
:10339000000069461848FDF728FA4FF48040ADF860
:1033A000000069461448FDF720FA4FF40040ADF8DC
:1033B000000069461048FDF718FA4FF48070ADF828
:1033C000000069460B48FDF710FA4FF40070ADF8A5
:1033D000000069460748FDF708FA4FF48060ADF831
:1033E000000069460348FDF700FA08BD000C0140E3
:1033F00000200140001401400018014010B5FFF703
:103400002FFFFFF7F3FE322000F008FFD420FDF776
:1034100073FFFDF709FD13498880FDF705FD11498C
:103420008880FDF701FD0F498880084680884FF6A7
:10343000FF7101EA00200B498880FDF7F5FC09497E
:103440008988084307498880FDF79BFF0020FDF726
:103450009DFB0120044908604FF6FF70FDF77EFBDD
:1034600010BD0000EE0500208081214210B540F221
:1034700025510C4800F03BF998B10A4800F0F2F9E8
:10348000C4B209480088412808DA08480649098872
:10349000445405480088401C034908800120044921
:1034A000087010BD004C00401A0000202D050020BF
:1034B0001800002010B540F22551134800F017F90C
:1034C000012810D1104800F0CDF9C4B20F4800789F
:1034D000402808DA0E480D49097844540B48007812
:1034E000401C0A49087040F22441074800F0FFF8E8
:1034F000012808D104480088C4B203488088C4B2B7
:1035000001200449087010BD005000403C0000201C
:10351000AE0500203D00002070B505460E46002493
:103520000CE000BF40210C4800F0D4F80028F9D08E
:10353000295D094800F09BF9601CC4B2B442F0DB7D
:1035400000BF4021044800F0C5F80028F9D0002051
:103550000249087070BD0000005000403C0000208F
:1035600010B500BF40F22551114800F0C0F8012805
:103570000BD10F48001D0088C1B20E480288008898
:10358000401C0C4B18800C48815440F224410848E0
:1035900000F0ADF8012809D105480088C4B20448FC
:1035A000001D0088C4B201200449087010BD00004D
:1035B00000380140120000202D01002010000020E2
:1035C00070B505460E4600240CE000BF40210A48B5
:1035D00000F080F80028F9D0295D074800F047F98D
:1035E000601CC4B2B442F0DB00BF4021024800F0CE
:1035F00071F80028F9D070BD0038014010B540F2D4
:1036000025510C4800F073F898B10A4800F02AF9E7
:10361000C4B209480088402808DA084806490988E1
:10362000445405480088401C03490880012004498F
:10363000087010BD004400403A0000206E050020D4
:103640003800002070B505460E4600240CE000BF8F
:1036500040210A4800F03EF80028F9D0295D0748CB
:1036600000F005F9601CC4B2B442F0DB00BF402199
:10367000024800F02FF80028F9D070BD0044004047
:1036800070B505460E4600240CE000BF40210A48F4
:1036900000F020F80028F9D0295D074800F0E7F88D
:1036A000601CC4B2B442F0DB00BF4021024800F00D
:1036B00011F80028F9D070BD004C004021B182897A
:1036C00042F40052828104E082894DF6FF731A4071
:1036D0008281704702460020B1F5007F00D100BF13
:1036E00013880B400BB1012000E00020704770B53B
:1036F0000246002400230025002040F66A16B1424D
:1037000000D100BFC1F3421501F01F03012606FAE4
:1037100003F3012D02D19689334006E0022D02D138
:10372000168A334001E0968A33400C12012606FACD
:1037300004F41688344013B10CB1012000E00020DD
:1037400070BDF0B50346002400260025002040F699
:103750006A17B94200D100BF1846C1F3421401F004
:103760001F06012707FA06F5012C01D10C3004E0F1
:10377000022C01D1103000E014301AB107682F4339
:10378000076002E00768AF430760F0BD2DE9F0472E
:1037900086B005460E460024A24600BFA14600277B
:1037A000B08900B100BF2F462C8A4CF6FF70044050
:1037B000F08804432C82AC894EF6F3100440B088A4
:1037C00031890843718908430443AC81AC8A4FF6C0
:1037D000FF400440B0890443AC8201A8FFF72AF8F7
:1037E0001F48874202D1DDF810A001E0DDF80CA0EF
:1037F000A88900F4004040B10AEBCA0000EB0A10AF
:1038000031684900B0FBF1F807E00AEBCA0000EBB1
:103810000A1031688900B0FBF1F86420B8FBF0F0C1
:1038200004012009642101FB1089A88900F40040EB
:1038300040B1322000EBC900B0FBF1F000F007000E
:10384000044308E0322000EB09106421B0FBF1F0E2
:1038500000F00F0004432C8106B0BDE8F0870000A3
:103860000038014001468888C0F308007047C1F362
:103870000802828070470000002002490880024947
:10388000087070471200002010000020002002493C
:1038900008800249087070473A0000203800002074
:1038A0000020024908800249087070471A00002071
:1038B0001800002000200249087002490870704773
:1038C0003C0000203D00002000BFFEE770B504462C
:1038D0000D467E2000EA4406002006490860304676
:1038E000FFF7EEF82846FFF7EBF801200249C1F890
:1038F000980170BD988123420080234280F3108894
:10390000704730380A2801D20120704700207047E4
:1039100000BF70470146042901DB0020704701EB1E
:103920004100084A02EB80004078012808D10020BD
:1039300001EB4102034B03EB820250700120EDE7E3
:103940000020EBE79000002010B5044604B910BD3C
:10395000012C00D102240120FFF7D0FF09480460A8
:10396000002009490870FFF7C9FF06E000F09EF843
:1039700005480078012800D100E0F7E700BF00BF4C
:10398000E5E700000000002004000020F0B5034639
:1039900000224FF0E02675690F4E36680F4FB6FBD8
:1039A000F7F606FB03F400BF4FF0E026B16910E024
:1039B0004FF0E026B06988420BD0884202D20E1A3E
:1039C000324402E02E1A0E4432440146A24200D391
:1039D00000E0EDE700BFF0BD6800002040420F00AE
:1039E00070B50546304800EB051420688047002874
:1039F0003ED02079052802DA0520207152E0207996
:103A00000A2803DA2079401C20714BE0A07A38B9EB
:103A10000120A07205EB4501491CC8B200F08CFBE7
:103A2000208900283EDDE088218988420DDAE0887F
:103A3000401C80B2E0802189884233D105EB4501EA
:103A4000C91CC8B200F078FB2CE0E07A002829DD20
:103A5000207B401CC0B22073E17A884222DB002028
:103A6000207305EB4501491CC8B200F065FB19E065
:103A70002079052802DD0520207110E0207918B199
:103A80002079401E20710AE0A07A012807D1002089
:103A9000A07205EB4501891CC8B200F04DFB002067
:103AA000E080207370BD0000C0000020704710B59A
:103AB0004FF4A060FEF714FC00F094F800F013F847
:103AC0004FF4E13000F0C2F94FF4614000F016FA13
:103AD0004FF4E13000F06AFA4FF4165000F0C0FAEB
:103AE00000F066F910BD10B500F03CF800F002F8E7
:103AF00010BD000008B501214420FEF78BFE012116
:103B00001548FCF7FDFE0120ADF8000028208DF8D7
:103B1000030069461148FCF768FE1020ADF800006C
:103B200048208DF8030069460D48FCF75EFE08202A
:103B3000ADF8000048208DF8030069460848FCF7FE
:103B400054FE0420ADF8000048208DF803006946BB
:103B50000348FCF74AFE08BD00023000000801409F
:103B6000001801400021174A9172D1721173002090
:103B700018E06421144A02EB001211810221124A5A
:103B800002EB0012117100210F4A02EB0012917238
:103B90000D4A02EB0012D1720B4A02EB00121173B4
:103BA000411CC8B20628E4DB0849074A11600849ED
:103BB00011610849116208491163084911640849F3
:103BC0001165704720010020C00000203D0A000858
:103BD0006D0A00089D0A0008CD0A0008FD0A0008C9
:103BE0002D0B000808B501214820FEF713FE202008
:103BF000ADF8000003208DF8020010208DF80300BE
:103C000069460948FCF7F1FD2020ADF8000069463F
:103C10000648FCF7EAFD20210348FCF7BBFE202103
:103C20000248FCF7B7FE08BD000C01400018014037
:103C300000B587B001218820FEF7ECFD4020ADF8EB
:103C4000040010208DF8070003208DF8060001A95C
:103C50001E48FCF7CAFD8020ADF8040010208DF846
:103C6000070003208DF8060001A91948FCF7BDFDE7
:103C70000120184908601849C1F89C01174800F054
:103C800069F80020ADF808004FF48270ADF80A0022
:103C90000020ADF80C00ADF80E00ADF810004FF4A8
:103CA0000070ADF812001020ADF814000020ADF83F
:103CB00016000720ADF8180002A90848FEF7DCFE40
:103CC00001210648FEF73CFE07B000BD001C014084
:103CD000000C0140988123420080214200300140C5
:103CE00008B501211020FEF795FD10208DF8030086
:103CF00003208DF802001020ADF80000694614483A
:103D0000FCF773FD2020ADF8000069461048FCF771
:103D10006CFD4020ADF8000069460D48FCF765FDDC
:103D20008020ADF8000069460948FCF75EFD1021CF
:103D30000748FCF72DFE20210548FCF729FE40210D
:103D40000348FCF725FE80210148FCF721FE08BD51
:103D50000010014010B586B004462046FEF7BAFEBA
:103D60000020ADF804004FF48270ADF8060000208A
:103D7000ADF80800ADF80A00ADF80C004FF4007083
:103D8000ADF80E003820ADF810000020ADF812009C
:103D90000720ADF8140001A92046FEF76DFE20466D
:103DA000FEF7DAFD01212046FEF7CAFD06B010BD80
:103DB00070B5002016E0002100EB40021F4B03EB22
:103DC0008202516000EB400203EB8202916000EB43
:103DD000400203EB8202517000EB400203F8221014
:103DE000411CC8B20428E6DB154909684FF47A7310
:103DF000B1FBF3F2B2F1807F00D31DE022F07F41EE
:103E0000491E4FF0E023596159170F23002907DAA3
:103E10001C07260E0B4C01F00F052D1F665503E005
:103E20001C07250E084C655400BF00214FF0E0230D
:103E300099610721196100BF70BD0000900000204A
:103E40006800002018ED00E000E400E010B586B046
:103E5000044601210420FEF7DDFC01218803FEF762
:103E6000D9FC18208DF817004FF40070ADF814003D
:103E700003208DF8160005A91E48FCF7B6FC0420A7
:103E80008DF817000002ADF8140005A91948FCF7D9
:103E9000ACFC01940020ADF810000C20ADF80E0031
:103EA0000020ADF80C00ADF80A00ADF8080001A93B
:103EB0001148FFF76BFC25208DF8000001208DF8DC
:103EC00003008DF801008DF802006846FEF7D0F976
:103ED000012240F225510848FFF733FC012240F24D
:103EE00024410548FFF72DFC01210348FFF7E6FBBD
:103EF00006B010BD000801400038014010B586B082
:103F0000044601210420FEF785FC01214804FEF748
:103F100061FC0420ADF8140018208DF8170005A9E5
:103F20002048FCF762FC0820ADF8140004208DF84E
:103F3000170005A91B48FCF758FC01214804FEF7AF
:103F400059FC00214FF40030FEF754FC019400208E
:103F5000ADF80800ADF80A00ADF80C00ADF810009F
:103F60000C20ADF80E0001A90F48FFF70FFC26202A
:103F70008DF8000002208DF801008DF8020001206C
:103F80008DF803006846FEF773F9012240F22551CF
:103F90000548FFF7D6FB01210348FFF78FFB06B06A
:103FA00010BD0000000801400044004010B586B07C
:103FB000044601211020FEF72DFC0121C804FEF764
:103FC00009FC4FF48060ADF8140018208DF817003C
:103FD00005A92148FCF709FC4FF40060ADF8140076
:103FE00004208DF8170005A91B48FCF7FEFB0121F2
:103FF000C804FEF7FFFB00214FF40020FEF7FAFB98
:1040000001940020ADF80800ADF80A00ADF80C00EE
:10401000ADF810000C20ADF80E0001A90F48FFF715
:10402000B5FB34208DF8000001208DF8010003203D
:104030008DF8020001208DF803006846FEF718F99C
:10404000012240F225510548FFF77BFB012103487F
:10405000FFF734FB06B010BD00100140004C0040DB
:1040600010B586B0044601211020FEF7D3FB0121D4
:104070002020FEF7CFFB01210805FEF7ABFB18203F
:104080008DF817004FF48050ADF8140003208DF820
:10409000160005A91F48FCF7A8FB04208DF817009F
:1040A000ADF8140005A91C48FCF79FFB0121080589
:1040B000FEF7A0FB00214FF48010FEF79BFB01945C
:1040C0000020ADF80800ADF80A00ADF80C00ADF81E
:1040D00010000C20ADF80E0001A91048FFF756FBA8
:1040E00035208DF8000001208DF8030003208DF8A5
:1040F00001008DF802006846FEF7BAF8012240F28E
:1041000025510648FFF71DFB01210448FFF7D6FAA9
:1041100006B010BD001001400014014000500040E6
:1041200010B5002404E02046FFF75AFC601CC4B21E
:10413000062CF8DB10BD00000649C97A054A505428
:104140001146C97A491CC9B2D1720A2901DB002182
:10415000D17270472001002010B5FFF7E1FF10BDBC
:104160007047416851B14168491E416031B9012130
:1041700041700178012901D18168416070470000D8
:1041800070B504460D46042C01DB00BFFEE701209C
:10419000FFF7B4FB04EB44000C4901EB80004560E1
:1041A00004EB440001EB80008560002004EB440137
:1041B000064A02EB81014870012004EB440102F839
:1041C00021000020FFF79AFB70BD00009000002046
:1041D00070B504460D46042C01DB00BFFEE701204C
:1041E000FFF78CFB04EB44000B4901EB80004560BA
:1041F00004EB440001EB80008560002004EB4401E7
:10420000054A02EB8101487004EB440102F82100E9
:10421000FFF774FB70BD00009000002010B504464D
:104220002046FFF791FB10BD10B504462046FFF76E
:10423000ADFB10BD00BF054A128802F04002002A03
:10424000F9D0C2B2014B1B1D1A80704700380140E3
:104250001CB5FFF72CFCFEF7D3F9FEF797F9FFF733
:104260003FFDFFF7CBF8FEF7F3FC41F28831002069
:10427000FFF786FF64210120FFF782FF0A21022059
:10428000FFF77EFF64210320FFF77AFFC8E20220D8
:10429000FFF740FB28B100F0F7FB00F0BDFB00F09A
:1042A000E1FBFE49FE48006800F0ECFD05D201226A
:1042B0000021084600F066FB04E0052200210846C4
:1042C00000F060FB0020FFF725FB40B1FFF7B0FCDA
:1042D000FEF71AF94120FDF727F8FCF771FB0320E0
:1042E000FFF718FB0028D1D0EE48006800F0AAFCC8
:1042F00004460020102105232246CDE90010A0210C
:104300008020FCF793FFE648006800F09BFCC4B2F5
:104310000020102102232246CDE9001064218020D4
:10432000FCF784FFE049DE48006800F0DFFC05464A
:1043300000F088FCC0B20A2190FBF1F201FB1204EC
:104340000020102101232246CDE90010642198208D
:10435000FCF76CFFD548006800F074FCC4B2002084
:10436000102102232246CDE9001082218020FCF793
:104370005DFFCD49CD48006800F0B8FC054600F06F
:1043800061FCC0B20A2190FBF1F201FB1204002093
:10439000102101232246CDE9001082219820FCF74C
:1043A00045FFC348006800F04DFC04460020102182
:1043B00004232246CDE90010BE219820FCF736FFE9
:1043C000BC48006800F03EFC044600201021032396
:1043D0002246CDE90010DC218220FCF727FFB648F9
:1043E0000078012830D1B54819231A4641210090A0
:1043F0003220FCF7C7FE4FF47840B1490880002016
:1044000010232522462100905020FCF755FE002065
:1044100010232622462100906020FCF74DFE00204C
:1044200010232722462100907020FCF745FE002033
:1044300010232822462100908020FCF73DFE43F205
:1044400033309F4908802AE09B48007838BB9D485C
:1044500019231A46412100903220FCF793FE0020D8
:1044600010232922462100905020FCF725FE002031
:1044700010232622462100906020FCF71DFE00201C
:1044800010232722462100907020FCF715FE002003
:1044900010232822462100908020FCF70DFE0020EA
:1044A00010233F22282100905020FCF705FE002019
:1044B00010234022282100906020FCF7FDFD002001
:1044C00010234122282100907020FCF7F5FD0020E8
:1044D00010234222282100908020FCF7EDFD0020CF
:1044E00010234322282100909020FCF7E5FD0020B6
:1044F0001023432228210090A020FCF7DDFD00209E
:104500001023432228210090B020FCF7D5FD6E48EF
:104510000078012852D14FF47840694908806B48EF
:1045200019231A46232100903220FCF72BFE00208D
:1045300010233722282100905020FCF7BDFD0020D9
:1045400010233822282100906020FCF7B5FD0020C0
:1045500010233922282100907020FCF7ADFD0020A7
:1045600010233A22282100908020FCF7A5FD00208E
:1045700010233B22282100909020FCF79DFD002075
:1045800010233C2228210090A020FCF795FD00205C
:1045900010233D2228210090B020FCF78DFD0C2136
:1045A0004B48FCF783F80C214948FEF7B5FFFFF7AD
:1045B00081F943F23330424908800AE042480078EA
:1045C00038B9444819231A46232100903220FCF7B9
:1045D000D9FD4148007888B140481E231A46FA2187
:1045E00000903220FCF7CEFD0020102351224FF422
:1045F000817100908020FCF75FFD10E038481E2399
:104600001A46FA2100903220FCF7BCFD002010234E
:1046100052224FF4817100908020FCF74DFD31480B
:10462000007890B12D481E231A464FF48C710090EB
:104630003220FCF7A7FD0020102351224FF4907187
:1046400000908020FCF738FD11E025481E231A4613
:104650004FF48C7100903220FCF794FD0020102361
:1046600052224FF4907100908020FCF725FD1E48E7
:10467000007890B11D481E231A464FF49B7100909C
:104680003220FCF77FFD0020102351224FF49F7150
:1046900000908020FCF710FD3CE029E00000C041C4
:1046A000240000202C0000200000204128000020D1
:1046B000300000203400002023000020626C00083D
:1046C0006400002078670008220000203676000889
:1046D0004E0000204C71000820000020F69C0008CD
:1046E000EE950008210000201C00002006AB000809
:1046F0004C481E231A464FF49B7100903220FCF761
:1047000041FD0020102352224FF49F710090802021
:10471000FCF7D2FC4448007890B144481E231A4666
:104720004FF4AA7100903220FCF72CFD00201023DA
:1047300051224FF4AE7100908020FCF7BDFC11E0D7
:1047400038481E231A464FF4AA7100903220FCF715
:1047500019FD0020102352224FF4AE7100908020EA
:10476000FCF7AAFC3248007890B132481E231A4662
:104770004FF4B97100903220FCF704FD00201023A3
:1047800051224FF4BD7100907020FCF795FC11E0B0
:1047900029481E231A464FF4B97100903220FCF7C5
:1047A000F1FC0020102352224FF4BD7100907020C4
:1047B000FCF782FC2148007890B121481E231A465C
:1047C0004FF4C87100903220FCF7DCFC002010236D
:1047D00051224FF4CC7100907020FCF76DFC11E079
:1047E00018481E231A464FF4C87100903220FCF777
:1047F000C9FC0020102352224FF4CC71009070208D
:10480000FCF75AFC00201049088010A01821102342
:104810009622CDE900104FF4C3719820FCF7D3FC29
:1048200035E50000FEA300081D00002006AB0008CF
:104830001E00002016B900080EB200081F0000205C
:1048400026C700081EC0000864000020534D4152D6
:104850005420484F4D45000060B90021474A11607F
:10486000474AC2F89411454A08321160444AC2F8D6
:104870009C1182E001280DD10121404A11600021E4
:104880003F4AC2F894113D4A083211603C4AC2F8CE
:104890009C1172E002280ED10021384A11600121DA
:1048A000374AC2F894110021344A08321160344A60
:1048B000C2F89C1161E003280ED100212F4A11603B
:1048C0002F4AC2F8941101212C4A083211600021AC
:1048D0002B4AC2F89C1150E004280DD10021274A30
:1048E0001160274AC2F89411244A0832116001214C
:1048F000234AC2F89C1140E005280DD101211F4A2E
:1049000011601F4AC2F8941100211C4A083211603C
:104910001B4AC2F89C1130E006280ED10021174A2C
:1049200011600121164AC2F89411144A083211602C
:104930000021134AC2F89C111FE007280DD1002165
:104940000E4A11600E4AC2F8941101210B4A083236
:1049500011600B4AC2F89C110FE008280DD101210B
:10496000064A11600021064AC2F89411034A08322F
:1049700011600121024AC2F89C1170479001224245
:104980000000224270B504460D461646002C3ED16A
:1049900025B1012D1CD0022D38D133E00320FEF7C4
:1049A000B9FFA0B11A490A780978491C184B197047
:1049B0001849885CFFF750FF15480078092802D194
:1049C00000201349087031460320FFF701FC1DE069
:1049D0000320FEF79FFFA0B10D480078002802DCFD
:1049E00008200B4908700A490A780978491E084BC3
:1049F00019700849885CFFF72FFF31460320FFF745
:104A0000E7FB03E00020FFF727FF00BF00BF70BDFA
:104A10005A0000205B00002010B50F480078D0B18C
:104A20000E48C078012807D10D4801780B48FEF7E1
:104A300027FEFEF721FF0EE00848C078022803D0C9
:104A40000648C078032806D1054801780348FEF7D8
:104A5000F9FDFEF711FF10BD100000202D01002010
:104A60001200002010B50548007830B104480178E4
:104A70000448FEF7A5FDFEF709FF10BD3800002031
:104A80003A0000206E05002010B55E48007800282E
:104A90007ED05D4801785D48FEF792FD5B48007A64
:104AA000222876D15948407A0028FAD15748807A8E
:104AB000012810D15548C07A02280CD15348C07B38
:104AC000534908705148807B48705048407B88703B
:104AD0004E48007BC8704D48807C022810D14B485E
:104AE000C07C02280CD14948C07D4A49087047481B
:104AF000807D48704548407D88704448007DC8707E
:104B00004248807E042810D14048C07E02280CD143
:104B10003E48C07F404908703C48807F48703B4811
:104B2000407F88703948007FC870384890F822006C
:104B3000052815D1354890F82300022810D13348B4
:104B400090F8270035490870304890F826004870E2
:104B50002E4890F8250088702C4890F82400C870E2
:104B60002A4890F82A00062818D1284890F82B00E7
:104B7000022813D1254890F82F00294908702348AE
:104B800090F82E004870214890F82D00887001E0C0
:104B900037E030E01D4890F82C00C8701B4890F8B2
:104BA000320003281AD1194890F834003F280ED05B
:104BB000164890F835003F2809D0144890F8360080
:104BC0003F2804D0114890F837003F2803D1012036
:104BD0001449087002E00020124908700B4890F850
:104BE0003A0007280BD1094890F83C003F2803D130
:104BF00001200D49087002E000200B490870FEF703
:104C00004FFE10BD180000201A0000202D050020C6
:104C100024000020280000202C000020300000206C
:104C2000340000202200002023000020401058BF44
:104C3000C0F14040491058BFC1F140418142EFF3FB
:104C400000807047C10DD1F19E0206DB4FEA0023C0
:104C500043F0004323FA02F07047004207D54FEAC1
:104C60004001B1F1FE4F02D24FF00000704710B585
:104C700000F0BDF849922480002070476FEA2000C0
:104C80007047000050EA010C00F113801CF5000F82
:104C900058BFBCF5000F01D48842704707D710F504
:104CA000000F58BF11F5000F15D488427047894294
:104CB00070471CF5000F04D5BCF5000FF7D58142F5
:104CC00070474FF0807C1CEB400F38BF1CEB410F4E
:104CD00001D28142704710B500F089F89224490052
:104CE0004FF000504FF08051FFF7A0BF4FF47F0C02
:104CF0001CEAD0121EBF1CEAD11392EA0C0F93EAF1
:104D00000C0F00F0478090EA010F48BF42F4807218
:104D10004FF0004C4CEA00204CEA012102EB030268
:104D2000A0FB0113A2F50002002918BF43F0010304
:104D30005B0028BF4FEA330342EB22425FEA132CA9
:104D40004CEBC2502EBFBCEB436FB2F57C0F7047EB
:104D50004FEA036CBCF1004F08BF20F00100B2F530
:104D60007C0F38BF70470BD582F0FF0212F5803FF1
:104D7000C8BF704700F1C040D8BF00F00040704786
:104D800000F5000C5FEA4C0C48BF7047B0F1C04022
:104D900000F073B890EA010F0CEAD11348BF42F457
:104DA0008072624538BF634504D280EA010000F09A
:104DB0000040704710B500F01AF800BF8900013EAE
:104DC00000F007B800F009B85FEA410C5FEA1C6C1C
:104DD00008D080EA010000F050B85FEA400C5FEABA
:104DE0001C6CF6D14FF00040A0F5800070470EF12A
:104DF000020E2EF0030E5EF8044B244204D44FEA58
:104E00004102B2F17F4F11D84FEA4003B3F17F4F17
:104E10000CD80ED14FEAD07CB2F17F4F0CEB4C0C8A
:104E20000CF1020C08BF4CEBD17C04E04FF0080CF5
:104E300001E04FEAD17C0CEB4C0324FA03F404F0BC
:104E40000704B4F1040C06D20EEB840CBDE810404C
:104E50004CF0010C6047DFE80CF0070802024FF04D
:104E60000040A0F5800010BD0846420018BFD2F1F6
:104E7000807288BF00F0004010BDFF2141EAD05091
:104E8000C005704751EA000C00F113801CF5000FBB
:104E900058BFBCF5000F01D48142704707D711F508
:104EA000000F58BF10F5000F15D48142704789429A
:104EB00070471CF5000F04D5BCF5000FF7D58842EC
:104EC00070474FF0807C1CEB410F38BF1CEB400F4C
:104ED00001D28842704780EA010081EA000180EA3D
:104EE0000100FFF7F8BEFFFFFFFFFFFFFFFFDFFF3F
:104EF000DFFFDFFFDFFFDFFFDFFFDFFFDFFFDFFFC2
:104F0000DFFFDFFFDFFFDFFFDFFFDFFFDFFFDFFFB1
:104F1000DFFFDFFFDFFFDFFFDFFFDFFFDFFFDFFFA1
:104F20009EF7FFFFFFFFFFFFFFFFFFFFFFFFFFFFFA
:104F3000FFFFFFFFFFFFFFFFFFFFFFFFFFFFFFFF81
:104F4000FFFFFFFFFFFFFFFFFFFFFFFFFFFFFFFF71
:104F5000FFFF9EF7FFFFFFFFFFFFFFFFFFFFFFFFCA
:104F6000FFFFFFFFFFFFFFFFFFFFFFFFFFFFFFFF51
:104F7000FFFFFFFFFFFFC318DFFFFFFFFFFFFFFF84
:104F8000FFFFFFFF9EF7FFFFFFFFFFFFFFFFFFFF9A
:104F9000FFFFFFFFFFFFFFFF6529E739E739E7392B
:104FA000B6B5FFFFFFFFE739E739E7398E73FFFF3B
:104FB000FFFFFFFFFFFF9EF7FFFFFFFFFFFFFFFF6A
:104FC000FFFFFFFFFFFFFFFFA631E739B294FFFFAE
:104FD0000842E739FFFFFBDEE7397DEFE739E739C4
:104FE000FFFFFFFFFFFFFFFF9EF7FFFFFFFFFFFF3A
:104FF000FFFFFFFFFFFFFFFFFFFFE7397DEFFFFF31
:10500000FFFFFFFF0C63E739FFFFE739E739E739B7
:10501000C739FFFFFFFFFFFFFFFF9EF7FFFFFFFF07
:10502000FFFFFFFFFFFFFFFFFFFFFFFFE739DFFF8E
:10503000FFFFFFFFFFFF6529494AFFFFFFFFE73939
:10504000E739FFFFFFFFFFFFFFFFFFFF9EF7FFFFB7
:10505000FFFFFFFFFFFFFFFFFFFFFFFFFFFFE7393E
:10506000FFFFFFFFFFFFFFFF6529A631FFFFFFFFE7
:10507000FFFFFFFFFFFFFFFFFFFFFFFFFFFF9EF7A9
:10508000FFFFFFFFFFFFFFFFFFFFFFFFFFFFFFFF30
:10509000E739FFFFFFFFFFFFFFFF6529A631FFFF95
:1050A000FFFFFFFFFFFFFFFFFFFFFFFFFFFFFFFF10
:1050B0009EF7FFFFFFFFFFFFFFFFFFFFFFFFFFFF69
:1050C000FFFFE739FFFFFFFFFFFFFFFF6529A63165
:1050D000FFFFFFFFFFFFFFFFFFFFFFFFFFFFFFFFE0
:1050E000FFFF9EF7FFFFFFFFFFFFFFFFFFFFFFFF39
:1050F000FFFFFFFFE739FFFFFFFFFFFFFFFF65290E
:10510000A631FFFFFFFFFFFFFFFFFFFFFFFFFFFFD6
:10511000FFFFFFFF9EF7FFFFFFFFFFFFFFFFFFFF08
:10512000FFFFFFFFFFFFE739FFFFE739E739E3182C
:105130006529A631FFFFFFFFFFFFFFFFFFFFFFFF16
:10514000FFFFFFFFFFFF9EF7FFFFFFFFFFFFFFFFD8
:10515000FFFFFFFFFFFFFFFFE739FFFFE739E739F9
:10516000E3186529A631FFFFFFFFFFFFFFFFFFFFE9
:10517000FFFFFFFFFFFFFFFF9EF7FFFFFFFFFFFFA8
:10518000FFFFFFFFFFFFFFFFFFFFE739FFFFE739EB
:10519000E739E3186529A631FFFFFFFFFFFFFFFF97
:1051A000FFFFFFFFFFFFFFFFFFFF9EF7FFFFFFFF78
:1051B000FFFFFFFFFFFFFFFFFFFFFFFFE739FFFFDD
:1051C000E739E739E3186529A631FFFFFFFFFFFF45
:1051D000FFFFFFFFFFFFFFFFFFFFFFFF9EF7FFFF48
:1051E000FFFFFFFFFFFFFFFFFFFFFFFFA63128428A
:1051F000FFFFE739E739E31838C6E739A631FFFF83
:10520000FFFFFFFFFFFFFFFFFFFFFFFFFFFF9EF717
:10521000FFFFFFFFFFFFFFFFFFFFFFFF9294E73954
:105220009EF7E739E739E7396529FFFF8E73E739DC
:10523000FFFFFFFFFFFFFFFFFFFFFFFFFFFFFFFF7E
:105240009EF7FFFFFFFFFFFFFFFFFFFFFFFFE739B5
:10525000E739DFFFE739E739E739E739E739FFFFB2
:105260000842FFFFFFFFFFFFFFFFFFFFFFFFFFFF02
:10527000FFFF9EF7FFFFFFFFFFFFFFFFFFFFFFFFA7
:10528000E739C739DFFFE739E739E739E739E73980
:10529000FFFFC7399294FFFFFFFFFFFFFFFFFFFFF4
:1052A000FFFFFFFF9EF7FFFFFFFFFFFFFFFFFFFF77
:1052B000FFFF2842E7395DEF2842E739E739E73950
:1052C0008A529EF7E739FFFFFFFFFFFFFFFFFFFF57
:1052D000FFFFFFFFFFFF9EF7FFFFFFFFFFFFFFFF47
:1052E000FFFFFFFFFFFFE739FFFF7DEFE739E739FA
:1052F000E739FFFF4529E739FFFFFFFFFFFFFFFF0A
:10530000FFFFFFFFFFFFFFFF9EF7FFFFFFFFFFFF16
:10531000FFFFFFFFFFFFFFFF2842E739BAD6FFFF7D
:10532000FFFFFFFF4529E73959CEFFFFFFFFFFFFD2
:10533000FFFFFFFFFFFFFFFFFFFF9EF7FFFFFFFFE6
:10534000FFFFFFFFFFFFFFFFFFFFFFFFE739E73929
:1053500008420842E739E73975ADFFFFFFFFFFFF5D
:10536000FFFFFFFFFFFFFFFFFFFFFFFF9EF7FFFFB6
:10537000FFFFFFFFFFFFFFFFFFFFFFFFFFFFFFFF3D
:10538000FFFF96B52421FFFFFFFFFFFFFFFFFFFF99
:10539000FFFFFFFFFFFFFFFFFFFFFFFFFFFF9EF786
:1053A000FFFFFFFFFFFFFFFFFFFFFFFFFFFFFFFF0D
:1053B000FFFFFFFFFFFFFFFFFFFFFFFFFFFFFFFFFD
:1053C000FFFFFFFFFFFFFFFFFFFFFFFFFFFFFFFFED
:1053D000FFFFFFFFFFFFFFFFDFFFDFFFDFFFDFFF5D
:1053E000DFFFDFFFDFFFDFFFDFFFDFFFDFFFDFFFCD
:1053F000DFFFDFFFDFFFDFFFDFFFDFFFDFFFDFFFBD
:10540000DFFFDFFFDFFFDFFFDFFF9EF7FFFFFFFFB5
:10541000FFFFFFFFFFFFFFFFFFFFFFFFFFFFFFFF9C
:10542000FFFFFFFFFFFFFFFFFFFFFFFFFFFFFFFF8C
:10543000FFFFFFFFFFFFFFFFFFFFFFFF9EF7FFFFE5
:10544000FFFFFFFFFFFFFFFFFFFFFFFFFFFFFFFF6C
:10545000FFFF34A5E73996B5FFFFFFFFFFFFFFFF12
:10546000FFFFFFFFFFFFFFFFFFFFFFFFFFFF9EF7B5
:10547000FFFFFFFFFFFFFFFFFFFFFFFFFFFFFFFF3C
:10548000FFFFFFFFE739E739E739FFFFFFFFFFFFC6
:10549000FFFFFFFFFFFFFFFFFFFFFFFFFFFFFFFF1C
:1054A0009EF7FFFFFFFFFFFFFFFFFFFFFFFFFFFF75
:1054B000FFFFFFFFEB5AE739FFFFE7398A525DEF45
:1054C000E739E739E739E739E739FFFFFFFFFFFF42
:1054D000FFFF9EF7FFFFFFFFFFFFFFFFFFFFFFFF45
:1054E000FFFFFFFF9EF7494ACB5AFFFF494AE739C2
:1054F000FFFFFFFFFFFFFFFFFFFFFFFFFFFFFFFFBC
:10550000FFFFFFFF9EF7FFFFFFFFFFFFFFFFFFFF14
:10551000FFFFFFFFFFFF2421E739FFFFFFFFBEF77B
:10552000E7392421FFFF494A863186312842FFFFAF
:10553000FFFFFFFFFFFF9EF7FFFFFFFFFFFFFFFFE4
:10554000FFFFFFFFFFFFFFFFE7392842FFFFFFFFDD
:10555000FFFFA631E7397DEFDFFFF7BDF7BD9AD634
:10556000FFFFFFFFFFFFFFFF9EF7FFFFFFFFFFFFB4
:10557000FFFFFFFFFFFFFFFFC739E739FFFFFFFF17
:10558000FFFFFFFFBEF7E7390842FFFFFFFFFFFF06
:10559000FFFFFFFFFFFFFFFFFFFF9EF7FFFFFFFF84
:1055A000FFFFFFFFFFFFFFFF3CE7E7392842FFFF58
:1055B000FFFFFFFFFFFFFFFFA631E739BEF7A63170
:1055C000E7390842FFFFFFFFFFFFFFFF9EF7FFFFE6
:1055D000FFFFFFFFFFFFFFFFFFFF0842E739FFFF6D
:1055E000FFFFFFFFFFFFFFFFFFFFFFFFE73928423D
:1055F000FFFFFFFFFFFFFFFFFFFFFFFFFFFF9EF724
:10560000FFFFFFFFFFFFFFFFFFFFFFFFE739A631AF
:10561000FFFFFFFFFFFFFFFFFFFFFFFFFFFF61082F
:10562000E739FBDEFFFFFFFFFFFFFFFFFFFFFFFF8D
:105630009EF7FFFFFFFFFFFFFFFFFFFFE318E739C4
:105640009EF7FFFFFFFFFFFFFFFFFFFFFFFFFFFFD3
:10565000FFFFE739E739FFFFFFFFFFFFFFFFFFFF16
:10566000FFFF9EF7FFFFFFFFFFFFFFFFFFFFA631DA
:105670008A52FFFFFFFFFFFFFFFFFFFFFFFFFFFF5C
:10568000FFFFFFFFE739E739FFFFFFFFFFFFFFFFE6
:10569000FFFFFFFF9EF7FFFFFFFFFFFFFFFFFFFF83
:1056A00008426529FFFFFFFFFFFFFFFFFFFFFFFF2E
:1056B000FFFFDFFFFFFFE739E739FFFFFFFFFFFFD6
:1056C000FFFFFFFFFFFF9EF7FFFFFFFFFFFFFFFF53
:1056D000FFFFE7398A52FFFFE739E739E739E73952
:1056E000E739E7390842FFFFE739E739FFFFFFFFF6
:1056F000FFFFFFFFFFFFFFFF9EF7FFFFFFFFFFFF23
:10570000FFFFFFFF0842E739DFFFE739E739E739F5
:10571000E739E739E7392842FFFFE739C739FFFFA3
:10572000FFFFFFFFFFFFFFFFFFFF9EF7FFFFFFFFF2
:10573000FFFFFFFFFFFFFFFFE739B6B5BEF70842E7
:10574000E739E739E739E739FFFF14A5E739FFFF04
:10575000FFFFFFFFFFFFFFFFFFFFFFFF9EF7FFFFC2
:10576000FFFFFFFFFFFFFFFFFFFFE739E739FFFF05
:10577000FFFFE739E739E7399EF7FFFF494AE73985
:10578000DFFFFFFFFFFFFFFFFFFFFFFFFFFF9EF7B2
:10579000FFFFFFFFFFFFFFFFFFFFFFFFFFFF2842AD
:1057A000E739E7397DEF7DEFFFFF8631E739E739EC
:1057B000FFFFFFFFFFFFFFFFFFFFFFFFFFFFFFFFF9
:1057C0009EF7FFFFFFFFFFFFFFFFFFFFFFFFFFFF52
:1057D000FFFFE739E739E739E739E739E7392842A1
:1057E000FFFFFFFFFFFFFFFFFFFFFFFFFFFFFFFFC9
:1057F000FFFF9EF7FFFFFFFFFFFFFFFFFFFFFFFF22
:10580000FFFFFFFFFFFFFFFFFFFFFFFFFFFFFFFFA8
:10581000FFFFFFFFFFFFFFFFFFFFFFFFFFFFFFFF98
:10582000FFFFFFFF9EF7FFFFFFFFFFFFFFFFFFFFF1
:10583000FFFFFFFFFFFFFFFFFFFFFFFFFFFFFFFF78
:10584000FFFFFFFFFFFFFFFFFFFFFFFFFFFFFFFF68
:10585000FFFFFFFFFFFF9EF7FFFFFFFFFFFFFFFFC1
:10586000FFFFFFFFFFFFFFFFFFFFFFFFFFFFFFFF48
:10587000FFFFFFFFFFFFFFFFFFFFFFFFFFFFFFFF38
:10588000FFFFFFFFFFFFFFFF9EF7FFFFFFFFFFFF91
:10589000FFFFFFFFFFFFFFFFFFFFFFFFFFFFFFFF18
:1058A000FFFFFFFFFFFFFFFFFFFFFFFFFFFFFFFF08
:1058B000FFFFFFFFFFFFFFFFFFFFFFFFFFFFFFFFF8
:1058C000FFFFDFFFDFFFDFFFDFFFDFFFDFFFDFFFC8
:1058D000DFFFDFFFDFFFDFFFDFFFDFFFDFFFDFFFD8
:1058E000DFFFDFFFDFFFDFFFDFFFDFFFDFFFDFFFC8
:1058F000DFFFDFFF9EF7FFFFFFFFFFFFFFFFFFFF61
:10590000FFFFFFFFFFFFFFFFFFFFFFFFFFFFFFFFA7
:10591000FFFFFFFFFFFFFFFFFFFFFFFFFFFFFFFF97
:10592000FFFFFFFFFFFF9EF7FFFFFFFFFFFFFFFFF0
:10593000FFFFFFFFFFFFFFFFFFFFFFFFFFFFFFFF77
:10594000FFFFFFFFFFFFFFFFFFFFFFFFFFFFFFFF67
:10595000FFFFFFFFFFFFFFFF9EF7FFFFFFFFFFFFC0
:10596000FFFFFFFFFFFFFFFFFFFFFFFFFFFFFFFF47
:10597000E739FFFFFFFFFFFFFFFFFFFFFFFFFFFF15
:10598000FFFFFFFFFFFFFFFFFFFF9EF7FFFFFFFF90
:10599000FFFFFFFFFFFFFFFFFFFFFFFFFFFFFFFF17
:1059A000FFFFE739FFFFFFFFFFFFFFFFFFFFFFFFE5
:1059B000FFFFFFFFFFFFFFFFFFFFFFFF9EF7FFFF60
:1059C000FFFFFFFFFFFFFFFFFFFFFFFFE739FFFFC5
:1059D000FFFFFFFFE739FFFFFFFFDBDEE739FFFFD8
:1059E000FFFFFFFFFFFFFFFFFFFFFFFFFFFF9EF730
:1059F000FFFFFFFFFFFFFFFFFFFFFFFFFFFF694A02
:105A00000842AA52494AE739694AD39CE739E7393B
:105A1000FFFFFFFFFFFFFFFFFFFFFFFFFFFFFFFF96
:105A20009EF7FFFFFFFFFFFFFFFFFFFFFFFFFFFFEF
:105A3000FBDEE739E739E739E739E739E739E739AD
:105A4000FFFFFFFFFFFFFFFFFFFFFFFFFFFFFFFF66
:105A5000FFFF9EF7FFFFFFFFFFFFFFFFE739C7399B
:105A6000BEF72842E7390C63FFFFFFFFBEF7C739D7
:105A7000E739E7393CE7E739E7391CE7FFFFFFFF84
:105A8000FFFFFFFF9EF7FFFFFFFFFFFFFFFFFFFF8F
:105A9000694AE739E739FFFFFFFFFFFFFFFFFFFF1D
:105AA000FFFFFFFFE739E7390842FFFFFFFFFFFF76
:105AB000FFFFFFFFFFFF9EF7FFFFFFFFFFFFFFFF5F
:105AC000FFFF18C6E739494AFFFFFFFFFFFFFFFF4F
:105AD000FFFFFFFFFFFFA631E739FFFFFFFFFFFFDB
