:020000040800F2
:10000000780C0020DD010008BD0D0008110B000870
:10001000B90D000889060008891A000800000000D0
:100020000000000000000000000000009D14000817
:100030002507000800000000610F0008891500086E
:10004000F7010008F7010008F7010008F7010008B0
:10005000F7010008F7010008F7010008F7010008A0
:10006000F701000855070008F7010008F70100082C
:10007000F7010008F7010008F7010008F701000880
:10008000F7010008F7010008F7010008F701000870
:10009000F7010008F7010008F7010008F701000860
:1000A000F7010008F7010008F7010008F701000850
:1000B000F7010008F7010008F7010008F701000840
:1000C000F7010008F7010008F7010008F701000830
:1000D000F70100089D170008391800087918000872
:1000E00029070008F7010008F701000800F002F8EE
:1000F00000F065F80AA090E8000C82448344AAF15D
:100100000107DA4501D100F05AF8AFF2090EBAE85A
:100110000F0013F0010F18BFFB1A43F0010318473B
:10012000E0310000003200000A444FF0000C10F8EB
:10013000013B13F0070408BF10F8014B1D1108BF65
:1001400010F8015B641E05D010F8016B641E01F805
:10015000016BF9D113F0080F1EBF10F8014BAD1C55
:100160000C1B09D16D1E58BF01F801CBFAD505E073
:1001700014F8016B01F8016B6D1EF9D59142D6D3CD
:10018000704700000023002400250026103A28BFF5
:1001900078C1FBD8520728BF30C148BF0B607047F9
:1001A000642900F09980782900F0D280732900F04A
:1001B0000682002070471FB51FBD10B510BD00F0AE
:1001C00031FA1146FFF7F7FF02F0AEF800F04FFAF0
:1001D00003B4FFF7F2FF03BC01F062FC094880475B
:1001E00009480047FEE7FEE7FEE7FEE7FEE7FEE719
:1001F000FEE7FEE7FEE7FEE704480549054A064B31
:100200007047000015160008ED0000087806002071
:10021000780C002078080020780800207047000043
:100220000FB4044910B503AA029800F0CDF910BC30
:100230005DF814FB1400002070B504468569006861
:10024000C10601D5302600E02026C00707D070BDCA
:10025000D4E9012130469047206A401C20626D1E7F
:10026000F6D570BD70B5044685690078C00707D122
:1002700070BDD4E9012120209047206A401C2062F3
:100280006D1EF6D570BD70B50C460546012A05D029
:100290002878800600D5EA69002302E0012305E002
:1002A0005B1C934202D2E05C0028F9D1A869E618F1
:1002B000C01AA861286A184428622846FFF7BCFFC4
:1002C00004E0D5E9012114F8010B9047B442F8D3BA
:1002D0002846FFF7C7FF70BD2DE9F0410646002410
:1002E00010687529314616A510D0AFF3008000289C
:1002F00002DA404213A507E031688A0701D512A54A
:1003000002E0490704D511A5012401E0AFF3008004
:1003100000210A2206F1240709E0B0FBF2FCB0FB41
:10032000F2F302FB1C00303078541846491C0028B8
:10033000F3D123462A463046BDE8F04100F0D4B858
:10034000000000002D0000002B0000002000000035
:1003500070B504460D4621461068AFF30080218831
:10036000090502D50F4A7A4402E00E4A7A440E3259
:10037000002104F1240305E000F00F060009965D5A
:100380005E54491C0028F7D120780023000704D5CB
:10039000702D02D009B1022311322046BDE8704011
:1003A00000F0A2B8142F00002DE9F05F8946044642
:1003B0004FF0000ADFF824B1FB44C0F820A020462B
:1003C000E168884700287DD0252806D0D4E901219E
:1003D0009047206A401C2062F1E700255F462046D6
:1003E000E16888472028064607DB312E05D2B81978
:1003F00010F8200C08B10543F1E7A80701D525F056
:100400000405C4F81CA00027C4F818A02A2E09D09F
:10041000304601F03EFB38B304EB8708303EC8F8A5
:10042000186019E059F8041B204604EB870291611B
:10043000E1688847012F064618D1E069002820DAD4
:1004400025F020051DE0D8F8180000EB800006EB31
:1004500040003038C8F818002046E1688847064652
:1004600001F017FB0028EED1012F0AD02E2E08D163
:100470002046E16888477F1C0646022F45F020058C
:10048000C4DBA069002803DA404245F00105A06101
:10049000E80701D025F01005A6B1A6F14100192802
:1004A00002D8203645F400654A463146204625608C
:1004B0004D46FFF775FE60B1012807D0ED1D25F010
:1004C000070000E007E000F1080978E705F10409FA
:1004D00075E730467AE7206ABDE8F09FEA2E000013
:1004E00070477047704770472DE9F0470D469946B1
:1004F0009246044600F124080168880604D5E069A4
:1005000021F01001216000E00120A84201DD471B1D
:1005100000E00027A1697A1902EB0900081AA0611E
:100520002078C00602D42046FFF786FE002608E0A9
:10053000D4E901211AF806009047206A401C761C75
:1005400020624E45F4DB2078C0060AD52046FFF72E
:1005500073FE06E0D4E9012130209047206A401C58
:100560002062381EA7F10107F4DC07E0D4E901217D
:1005700018F805009047206A401C2062281EA5F14B
:100580000105F3DC2046FFF76DFE2078000602D55A
:100590000220BDE8F0870120FBE710B5436913B1E5
:1005A000AFF3008001E0FFF76EFE012010BD12786E
:1005B00000F124010A7000224A700122EDE711685F
:1005C0004FF0FF32E9E70000074B70B50D467B4462
:1005D00000F011F80446284600F020F810B14FF062
:1005E000FF3070BD204670BDFB1C000001694A1C35
:1005F00002610878704700B58FB0CDE90131002164
:10060000059105497944CDE9031011466846FFF785
:10061000CBFE0FB000BD0000E5FFFFFF007B00F048
:1006200080007047754600F02BF8AE46050069461D
:10063000534620F00700854618B020B5FFF7DCFDD3
:10064000BDE820404FF000064FF000074FF00008D3
:100650004FF0000B21F00701AC46ACE8C009ACE854
:10066000C009ACE8C009ACE8C0098D46704710B5B8
:100670000446AFF300802046BDE81040FFF7A8BD58
:10068000004870471406002000BFFEE738B500247C
:10069000002000900921134801F012F8142001F005
:1006A00009FE6946104800F0E5FF9DF800000928A2
:1006B00012D10D4801F018FE0B49097A88420BD17E
:1006C00009488478C07800EB042084B200200090B0
:1006D00000F00CF8204638BD4FF6FF7400F006F825
:1006E0002046F8E76C32000800060020002000BF1A
:1006F00004E00021034A1154411CC8B20A28F8DB67
:10070000704700000006002010B502460B4600208E
:10071000002104E0545C0444E0B24C1CA1B29942B4
:10072000F8DB10BD7047000010B54FF4006000F01A
:100730002BF848B10548006810B901200449087039
:100740004FF4006000F01AF810BD00002C012142A7
:100750002200002010B5082000F016F840B105482E
:100760000068012801D104490870082000F006F84B
:1007700010BD00000C8121422300002001490860C7
:100780007047000014040140014600200022074B7E
:100790001B6803EA0102054B14331B680B4013B1BD
:1007A0000AB1012000E00020704700000004014071
:1007B000002123498279002A3AD00A461268036848
:1007C0009A430B461A600A1D126803689A430B1D70
:1007D0001A60027911440A6803681A430A60184AC9
:1007E0000832126803689A43154B08331A601A1DC1
:1007F000126803689A43124B0C331A604279102A2C
:100800000ED11A1F126803681A430D4B08331A6081
:100810001A1D126803681A43094B0C331A600DE065
:100820000749427911440A6803681A430A6005E0DF
:10083000027911440A6803689A430A60704700000D
:10084000000401400EB50121244800F0F5F8012113
:10085000084600F0ADFC0B21002000F041F84FF4F9
:100860000060019000208DF808000C208DF8090030
:1008700001208DF80A0001A8FFF79AFF28208DF8C3
:10088000000002208DF801008DF8020001208DF893
:100890000300684600F094FA0321012000F020F8DC
:1008A0000820019000208DF8080008208DF809002C
:1008B00001208DF80A0001A8FFF77AFF09208DF8C2
:1008C000000002208DF801008DF8020001208DF853
:1008D0000300684600F074FA0EBD0000000230000C
:1008E00030B500228B071C0F0F2303FA04F20B4BC9
:1008F0008C1053F824309343084C8D1044F8253065
:1009000023468C1053F824308C07240F00FA04F48B
:100910002343024C8D1044F8253030BD08000140BF
:100920002DE9F04102460025002600200023002486
:10093000002791F803C00CF00F0591F803C00CF0EC
:10094000100CBCF1000F03D091F802C04CEA050571
:1009500091F800C0BCF1000F31D0146800202BE0EA
:100960004FF0010C0CFA00F3B1F800C00CEA0306DA
:100970009E4220D183004FF00F0C0CFA03F7BC43CA
:1009800005FA03FC4CEA040491F803C0BCF1280FFB
:1009900006D14FF0010C0CFA00FCC2F814C00AE0BA
:1009A00091F803C0BCF1480F05D14FF0010C0CFACF
:1009B00000FCC2F810C0401C0828D1D31460B1F864
:1009C00000C0BCF1FF0F34DD546800202EE000F1C0
:1009D000080C4FF0010808FA0CF3B1F800C00CEA5B
:1009E00003069E4221D183004FF00F0C0CFA03F74F
:1009F000BC4305FA03FC4CEA040491F803C0BCF1C3
:100A0000280F05D100F1080C08FA0CF8C2F8148080
:100A100091F803C0BCF1480F07D100F1080C4FF06A
:100A2000010808FA0CF8C2F81080401C0828CED340
:100A30005460BDE8F0810000F0B50A4600230024B0
:100A40000021002500F00046B6F1004F02D11D4EF6
:100A5000F16901E01B4E7168C0F3034583B200F4F5
:100A60004016B6F5401F08D121F07061154E76682A
:100A700026F07066134F7E6012E000F48016B6F523
:100A8000801F06D1032606FA05F4A14341F07061E8
:100A900006E0460D360103FA06F6B14341F07061F7
:100AA00022B1460D360103FA06F6314300F0004646
:100AB000B6F1004F02D1034EF16101E0014E7160C9
:100AC000F0BD0000000001404161704701617047C6
:100AD00010B50024002000F0BCF90446210B0120D1
:100AE0008840C4F30B0100FB01F4204610BD10B593
:100AF00000247F2000F0ADF90446204610BD10B55B
:100B000000247E2000F0A5F90446204610BD000018
:100B10000EE00849C96881F40061064AD1600020EE
:100B200001E0411C88B242F210718842F9DB00BF3B
:100B3000EFE700000020014010B500200F490860D9
:100B40000F48006820F0F0000D4908600846006872
:100B500040F03000086000200A49C1F884010220FA
:100B600001F0AEFB012005490860022001F0A8FB5E
:100B700000200449C1F8800110BD0000808121429D
:100B8000000C01400080214210B500200F49086090
:100B90000F48006820F0F0000D4908600846006822
:100BA00040F03000086001200A49C1F884010220A9
:100BB00001F086FB012005490860022001F080FB5E
:100BC00000200449C1F8800110BD0000808121424D
:100BD000000C01400080214270B5054600241748F2
:100BE000006820F0F000154908600846006840F0F1
:100BF00080000860002616E00020114908600220ED
:100C000001F05EFB01200F49C1F880016006040E6F
:100C10000B487C38006808B1601CC4B2012001F0A8
:100C20004FFB701CC6B2082EE6DB15B9FFF7ACFF10
:100C300001E0FFF781FF204670BD0000000C01407D
:100C4000808121420080214270B504461848006826
:100C500020F0F000164908600846006840F03000B7
:100C6000086000201349086000251EE0E00920B15B
:100C700001201049091D086003E000200D49091DED
:100C800008606006040E022001F01AFB01200949E9
:100C90000860022001F014FB00200749C1F8800120
:100CA000022001F00DFB681CC5B2082DDEDB70BD13
:100CB000000C0140808121420080214210B50F4884
:100CC000006820F0F0000D4908600846006840F018
:100CD0003000086001200A4908600A49C1F8800113
:100CE000042001F0EDFA002005490860042001F01D
:100CF000E7FA00200349C1F8800110BD000C014053
:100D0000848121420080214210B50F48006820F004
:100D1000F0000D4908600846006840F030000860A7
:100D200000200A4908600A49C1F88401042001F042
:100D3000C7FA0120054908600549C1F8840104206B
:100D400001F0BEFA10BD0000000C0140808121427C
:100D50000080214210B500241448006820F0F00003
:100D6000124908600846006840F0800008600120D1
:100D70000F49086001F0A4FA01200E49C1F8800172
:100D800001F09EFA07E0601CC4B2FA2C03DDFFF705
:100D9000BBFF012010BD0648803800680028F2D152
:100DA0000349091F086000BFF4E70000000C014080
:100DB000848121420080214200BFFEE7704700008D
:100DC00070B5002100230F22C47804B3154C2468A9
:100DD00004F4E064C4F5E064210AC1F10403CA40EC
:100DE000447804FA03F184781440214309010E4C3D
:100DF0000678A155047804F01F050124AC4005785D
:100E00006D11AD0005F1E025C5F8004109E0047859
:100E100004F01F050124AC40044D0678761145F816
:100E2000264070BD0CED00E000E400E080E100E051
:100E300002490143024A1160704700000000FA05B0
:100E40000CED00E010B54CF21041012000F02DF83F
:100E500010BD2DE9F041054600260027FFF72EFFC3
:100E60008A20FFF7F1FEFFF775FF2846FFF7ECFE3B
:100E7000FFF770FFFFF748FFFFF720FF8B20FFF71A
:100E8000E3FEFFF767FF0120FFF7A6FE06460020FE
:100E9000FFF7A2FE0746FFF737FF052001F00AFA29
:100EA00034023C432046BDE8F08170B505460C464F
:100EB000FFF704FF8A20FFF7C7FEFFF74BFF284626
:100EC000FFF7C2FEFFF746FF2012FFF7BDFEFFF758
:100ED00041FFE0B2FFF7B8FEFFF73CFFFFF714FF5A
:100EE00070BD000038B5002400200090092113488F
:100EF00000F030FC142001F0DDF96946104800F0E4
:100F000003FC9DF80000092812D10D4801F0FCF9FE
:100F10000B49097A88420BD109488478C07800EBE4
:100F2000042084B20020009000F00CF8204638BD68
:100F30004FF6FF7400F006F82046F8E77532000817
:100F40000A060020002000BF04E00021034A1154DB
:100F5000411CC8B20A28F8DB704700000A060020CE
:100F60007047000010B505A0FFF75AF906A0FFF77B
:100F700057F90F48FFF754F910BD0000B2D9D7F761
:100F8000CCE1CABE3A0D0A00312EB1BEB3CCD0F2CC
:100F9000D6D0A3ACC3BF353030BAC1C3EB44533055
:100FA000BAECB5C6B7ADD7AAD2BBB4CE0D0A000015
:100FB000B832000870B517480468001D0568001DA8
:100FC000066823462A46314613A0FFF729F91EA0DA
:100FD000FFF726F91DA0FFF723F929A130A0FFF79D
:100FE0001FF934A134A0FFF71BF938A13AA0FFF78D
:100FF00017F93EA141A0FFF713F9002305220321B1
:1010000042A0FFF70DF910A0FFF70AF94DA0FFF776
:1010100007F970BDE8F7FF1F0D0A4350553A5354C6
:101020004D3332463130335A4554362C4C514650AC
:101030003134342C5549443D253038582530385802
:10104000253038580A0D00000D0A00002A2A2A2AE5
:101050002A2A2A2A2A2A2A2A2A2A2A2A2A2A2A2AF0
:101060002A2A2A2A2A2A2A2A2A2A2A2A2A2A2A2AE0
:101070002A2A2A2A2A2A2A2A2A2A2A2A0D0A000061
:1010800057534E45505F5630312D3130335FD7D4F2
:10109000D6C6B0E5D7DBBACFCAB5D1E900000000AB
:1010A0002A20C0FDB3CCC3FBB3C620203A25730D64
:1010B0000A000000312E30002A20C0FDB3CCB0E67B
:1010C000B1BE20203A25730D0A00000020323032D4
:1010D000342D30362D3230002A20B7A2B2BCC8D50C
:1010E000C6DA20203A25730D0A000000D5D4B5CC0D
:1010F0005F32333530343132383036002A20D0D5A3
:10110000C3FB20203A25730D0A0000002A20B9CC29
:10111000BCFEBFE2B0E6B1BE3A5625642E25642E71
:101120002564202853544D3332463130785F537450
:10113000645065726970685F447269766572290DE2
:101140000A0000002A2A2A2A2A2A2A2A2A2A2A2A9D
:101150002A2A2A2A2A2A2A2A2A2A2A2A2A2A2A2AEF
:101160002A2A2A2A2A2A2A2A2A2A2A0D0A0000009A
:1011700029B1064AD2690243044BDA6104E0034A0A
:10118000D2698243014BDA617047000000100240CF
:1011900029B1064A12690243044B1A6104E0034A6A
:1011A00012698243014B1A6170470000001002402F
:1011B00029B1064A92690243044B9A6104E0034A4A
:1011C00092698243014B9A6170470000001002400F
:1011D00030B500210022002400232D4D6D6805F05C
:1011E0000C0121B1042905D0082923D105E0294D9E
:1011F000056022E0274D05601FE0254D6D6805F470
:101200007012234D6D6805F48034022505EB92427F
:101210001CB9214D554305600BE01D4D6D6805F46B
:1012200000351DB11C4D5543056002E0194D554375
:10123000056002E0174D056000BF00BF144D6D68EA
:1012400005F0F0010909154D6B5C0568DD4045604E
:101250000F4D6D6805F4E061090A104D6B5C45683F
:10126000DD4085600A4D6D6805F46051C90A0B4D7B
:101270006B5C4568DD40C560054D6D6805F4404117
:10128000890B074D6B5CC568B5FBF3F5056130BD97
:101290000010024000127A0000093D003C000020CE
:1012A0004C00002008B501210846FFF781FF01210D
:1012B0001048FFF7C1FB01210420FFF779FF4FF42D
:1012C0000060ADF8000048208DF8030069460A4828
:1012D000FFF726FB01210820FFF76AFF0820ADF881
:1012E000000028208DF8030069460448FFF718FB2A
:1012F00008BD00000002300000080140000C014061
:101300002DE9F04F8BB008A942F6064000F08DF8A9
:101310009DF8210001F0DEFCCDE900019DF82000E0
:1013200001F0D8FC80460022284B01F0E7FC06467D
:10133000DDE9002301F0CEFA0022254BCDE90201C0
:1013400001F0DCFC0022234BCDE9040101F06AFB33
:1013500004460022204B01F0CFFD824601F088FABE
:1013600007909DF8240001F0B5FCCDE902019DF83D
:10137000230001F0AFFC06460022144B01F0BEFC36
:101380008246DDE9022301F0A5FA80460022134BD4
:1013900001F0B4FC00220F4BCDE9040101F042FB47
:1013A000044601F065FA06900D49079808600D495A
:1013B000069808600C490A48006801F026FF03D22D
:1013C00001200BB0BDE8F08F0020FAE7000070406C
:1013D00000E06540E0FFEF400080464000005940DB
:1013E000180000201C0000200000014310B542F24C
:1013F000362000F001F810BD10B50446FFF75EFC82
:101400008820FFF721FCFFF7A5FC2012FFF71CFC4A
:10141000FFF7A0FCE0B2FFF717FCFFF79BFCFFF71C
:1014200073FC0A2000F046FF10BD2DE9F041044690
:101430000E4600250027FFF741FCE0B2FFF704FC51
:10144000FFF788FC2012FFF7FFFBFFF783FCE0B2F9
:10145000FFF7FAFBFFF77EFCFFF756FC642000F075
:1014600029FFFFF72BFC8920FFF7EEFBFFF772FC4B
:1014700000BF0AE0052D01DA012700E00027384609
:10148000FFF7AAFB7055681CC5B2062DF2DBFFF70B
:101490003BFC642000F00EFFBDE8F081704710B502
:1014A00000F002F810BD00000CB500200190009083
:1014B0003348006840F480303149086000BF30484C
:1014C000006800F4003000900198401C01900098E2
:1014D00018B90198B0F5A06FF1D12948006800F45F
:1014E000003010B10120009001E000200090009831
:1014F000012843D12348006840F0100021490860CA
:101500000846006820F0030008600846006840F0C4
:10151000020008601A484068194948600846406857
:1015200048600846406840F480604860084640686B
:1015300020F47C1048600846406840F4E810486099
:101540000846006840F08070086000BF0C480068E2
:1015500000F000700028F9D00948406820F003002E
:10156000074948600846406840F00200486000BFF4
:101570000348406800F00C000828F9D10CBD0000B9
:10158000001002400020024010B500F001F810BD2C
:1015900010B51B48006840B119480068401E184942
:1015A000086010B9012017490870002408E004EB16
:1015B0004401154A02EB810000F046FE601CC4B2F3
:1015C000042CF4DB11480068401C104908600846F0
:1015D00000686FF00041884202D100200B4908608A
:1015E00000F031FE0A480078401CC0B2084908707B
:1015F0000A2803DB0020087000F024FE10BD000064
:1016000000000020040000205001002008000020FD
:101610000C00002010B51348006840F0010011498B
:10162000086008464068104908400E49486008466E
:1016300000680E4908400B4908600846006820F41D
:10164000802008600846406820F4FE0048604FF49F
:101650001F008860FFF723FF4FF000600449086017
:1016600010BD0000001002400000FFF8FFFFF6FE72
:1016700008ED00E02DE9F04107460D460E480678DA
:101680000024002028700A2000F014FE0A48007888
:1016900086420FD176B100BF04E00848005D38559E
:1016A000601CC4B2B442F8DB034800782870002004
:1016B00001490870BDE8F08120000020800500206D
:1016C00070B505460E4600240CE000BF40210C48D2
:1016D00000F0FEF80028F9D0295D094800F0C5F9AE
:1016E000601CC4B2B442F0DB00BF4021044800F0EB
:1016F000EFF80028F9D000200249087070BD000002
:1017000000440040200000202DE9F04107460D462E
:101710000E4806780024002028700A2000F0CAFD38
:101720000A48007886420FD176B100BF04E008482D
:10173000005D3855601CC4B2B442F8DB0348007841
:101740002870002001490870BDE8F08121000020C8
:10175000C005002070B505460E4600240CE000BF11
:1017600040210C4800F0B4F80028F9D0295D094860
:1017700000F07BF9601CC4B2B442F0DB00BF402132
:10178000044800F0A5F80028F9D0002002490870AC
:1017900070BD0000004800402100002010B500BFCF
:1017A00040F22551114800F0A0F801280BD10F4854
:1017B000001D0088C1B20E4802880088401C0C4BF6
:1017C00018800C48815440F22441084800F08DF8FC
:1017D000012809D105480088C4B20448001D0088CA
:1017E000C4B201200449087010BD00000038014057
:1017F00012000020800100201000002070B5054676
:101800000E4600240CE000BF40210A4800F060F8BA
:101810000028F9D0295D074800F027F9601CC4B200
:10182000B442F0DB00BF4021024800F051F800282C
:10183000F9D070BD0038014010B540F225510B4879
:1018400000F053F8012810D1084800F009F9C4B29B
:1018500007480078402808DA0648054909784454C2
:1018600003480078401C0249087010BD0044004045
:10187000200000208005002010B540F225510B48C3
:1018800000F033F8012810D1084800F0E9F8C4B29C
:1018900007480078402808DA064805490978445482
:1018A00003480078401C0249087010BD0048004001
:1018B00021000020C005002021B1828942F400529D
:1018C000828104E082894DF6FF731A40828170475D
:1018D00002460020B1F5007F00D100BF13880B4005
:1018E0000BB1012000E00020704770B502460024D3
:1018F00000230025002040F66A16B14200D100BF47
:10190000C1F3421501F01F03012606FA03F3012D6E
:1019100002D19689334006E0022D02D1168A334067
:1019200001E0968A33400C12012606FA04F4168868
:10193000344013B10CB1012000E0002070BDF0B5BF
:101940000346002400260025002040F66A17B9420D
:1019500000D100BF1846C1F3421401F01F06012751
:1019600007FA06F5012C01D10C3004E0022C01D15C
:10197000103000E014301AB107682F43076002E00E
:101980000768AF430760F0BD2DE9F04786B0054614
:101990000E460024A24600BFA1460027B08900B130
:1019A00000BF2F462C8A4CF6FF700440F088044399
:1019B0002C82AC894EF6F3100440B088318908437C
:1019C000718908430443AC81AC8A4FF6FF40044060
:1019D000B0890443AC8201A8FFF7FAFB1F48874295
:1019E00002D1DDF810A001E0DDF80CA0A88900F418
:1019F000004040B10AEBCA0000EB0A103168490010
:101A0000B0FBF1F807E00AEBCA0000EB0A103168FE
:101A10008900B0FBF1F86420B8FBF0F00401200964
:101A2000642101FB1089A88900F4004040B13220F4
:101A300000EBC900B0FBF1F000F00700044308E040
:101A4000322000EB09106421B0FBF1F000F00F0030
:101A500004432C8106B0BDE8F08700000038014047
:101A600001468888C0F308007047C1F308028280ED
:101A70007047000000200249088002490870704742
:101A8000120000201000002000BFFEE780F3108845
:101A9000704730380A2801D2012070470020704773
:101AA00000BF704710B54FF480710248FFF70CF883
:101AB00010BD000000080140012001490860704786
:101AC000A00121420146042901DB0020704701EBFF
:101AD0004100084A02EB80004078012808D100202C
:101AE00001EB4102034B03EB820250700120EDE752
:101AF0000020EBE75001002010B5044604B910BDEA
:101B0000012C00D102240120FFF7C0FF0948046026
:101B1000002009490870FFF7B9FF06E000F06CF8F3
:101B200005480078012800D100E0F7E700BF00BFBA
:101B3000E5E700000000002004000020F0B50346A7
:101B400000224FF0E02675690F4E36680F4FB6FB46
:101B5000F7F606FB03F400BF4FF0E026B16910E092
:101B60004FF0E026B06988420BD0884202D20E1AAC
:101B7000324402E02E1A0E4432440146A24200D3FF
:101B800000E0EDE700BFF0BD2800002040420F005C
:101B9000012803D10021054A116005E0022803D184
:101BA0000021024A121D116070470000A0812142ED
:101BB000012803D10121054A116005E0022803D163
:101BC0000121024A121D116070470000A0812142CC
:101BD000012806D10749096881F48071054A11601E
:101BE00007E0022805D10349096881F40071014A20
:101BF000116070470C0C0140704710B54FF4A060A5
:101C0000FFF716F900F010F84FF4614000F052F9B8
:101C10004FF4165000F0A8F94FF4165000F0FEF9FA
:101C200000F0FAF810BD000008B501210420FFF70C
:101C3000BFFA4FF48070ADF8000010208DF803005B
:101C400003208DF8020069460448FEF769FE4FF450
:101C500080710248FEF738FF08BD0000000801400F
:101C600008B501210820FFF7A3FA03208DF8020030
:101C700010208DF803000001ADF800006946064809
:101C8000FEF74EFE4FF40070ADF8000069460248C2
:101C9000FEF746FE08BD0000000C014008B501211A
:101CA0000820FFF785FA01210820FFF781FA0120BB
:101CB000ADF8000010208DF8030003208DF802001D
:101CC00069460C48FEF72CFE01210A48FEF7FEFE8D
:101CD0000220ADF8000010208DF8030003208DF8DD
:101CE000020069460348FEF71BFE02210148FEF789
:101CF000EDFE08BD000C014010B5FFF7D3FAFEF76A
:101D0000A1FD10BD70B500240025FFF7C7FFFFF748
:101D100099F8052000F0CEFAFEF7F1FE04462146C0
:101D20000DA0FEF77DFA642000F0CAFAFEF7DFFE90
:101D3000054629460FA0FEF773FA45F24940844252
:101D400008D143F20100854204D10FA0FEF768FAE2
:101D5000002070BD0120FCE74D616E756661637403
:101D60007572657249444E756D2069732025580D52
:101D70000A00000044657669636549444E756D202C
:101D800069732025580D0A00B3F5CABCBBAFB3C9AF
:101D9000B9A60D0A0000000008B501210820FFF7D0
:101DA00007FA012000F0ECF9022000F0E9F9032025
:101DB00000F0E6F9042000F0E3F910208DF80300AC
:101DC00003208DF802008020ADF8000069460C4821
:101DD000FEF7A6FD4020ADF8000069460848FEF772
:101DE0009FFD2020ADF8000069460548FEF798FDEC
:101DF0001020ADF8000069460148FEF791FD08BDCE
:101E0000000C014010B5642000F054FAFFF7EEFA20
:101E1000642000F04FFA10BD70B5002016E00021DC
:101E200000EB40021F4B03EB8202516000EB4002CB
:101E300003EB8202916000EB400203EB82025170DF
:101E400000EB400203F82210411CC8B20428E6DB74
:101E5000154909684FF47A73B1FBF3F2B2F1807F50
:101E600000D31DE022F07F41491E4FF0E02359616D
:101E700059170F23002907DA1C07260E0B4C01F017
:101E80000F052D1F665503E01C07250E084C6554F1
:101E900000BF00214FF0E02399610721196100BFC5
:101EA00070BD0000500100202800002018ED00E067
:101EB00000E400E010B586B0044601210420FFF7DD
:101EC00077F901218803FFF773F918208DF81700BF
:101ED0004FF40070ADF8140003208DF8160005A92A
:101EE0001F48FEF71DFD04208DF817000002ADF815
:101EF000140005A91A48FEF713FD01940020ADF85F
:101F000010000C20ADF80E000020ADF80C00ADF86C
:101F10000A00ADF8080001A91248FFF735FD252099
:101F20008DF8000001208DF8030003208DF80100DA
:101F30008DF802006846FEF743FF012240F225516A
:101F40000848FFF7FCFC012240F224410548FFF756
:101F5000F6FC01210348FFF7AFFC06B010BD0000FE
:101F6000000801400038014010B586B00446012148
:101F70000420FFF71DF901214804FFF7F9F81820A4
:101F80008DF817000420ADF8140003208DF816001A
:101F900005A92048FEF7C4FC04208DF8170008208E
:101FA000ADF8140005A91B48FEF7BAFC012148044E
:101FB000FFF7EEF800214FF40030FFF7E9F8019445
:101FC0000020ADF80800ADF80A00ADF80C00ADF83F
:101FD00010000C20ADF80E0001A90F48FFF7D4FC4B
:101FE00026208DF8000001208DF8030003208DF8D5
:101FF00001008DF802006846FEF7E2FE012240F281
:1020000025510548FFF79BFC01210348FFF754FCCD
:1020100006B010BD000801400044004010B586B075
:10202000044601210820FFF7C3F801218804FFF7C7
:102030009FF818208DF817004FF48060ADF8140059
:1020400003208DF8160005A92048FEF769FC04203E
:102050008DF817004002ADF8140005A91B48FEF7E3
:102060005FFC01218804FFF793F800214FF48020E2
:10207000FFF78EF801940020ADF80800ADF80A00D3
:10208000ADF80C00ADF810000C20ADF80E0001A961
:102090000F48FFF779FC27208DF8000001208DF80C
:1020A000030003208DF801008DF802006846FEF75A
:1020B00087FE012240F225510548FFF740FC01212F
:1020C0000348FFF7F9FB06B010BD0000000C01400B
:1020D00000480040014601290AD10D48006800F47B
:1020E0008070B0F5807F01D1012070470020FCE7AF
:1020F00002290AD10648006800F40070B0F5007F9C
:1021000001D10120F1E70020EFE70020EDE700001A
:102110000C0C01400146012909D11848006800F063
:102120008000802801D1012070470020FCE70229AF
:1021300009D11248006800F04000402801D1012078
:10214000F2E70020F0E7032909D10C48006800F00D
:102150002000202801D10120E6E70020E4E704293F
:1021600009D10648006800F01000102801D10120B4
:10217000DAE70020D8E70020D6E700000C0C014089
:10218000012803D100210C4A116013E0022804D178
:102190000021094A121F11600CE0032804D100211C
:1021A000054A083A116005E0042803D10021024ADB
:1021B0000C3A1160704700009C812142012803D134
:1021C00001210C4A116013E0022804D10121094ABF
:1021D000121F11600CE0032804D10121054A083ABE
:1021E000116005E0042803D10121024A0C3A116074
:1021F000704700009C812142012806D110490968DE
:1022000081F080010E4A116019E0022806D10C49C4
:10221000096881F040010A4A116010E0032806D1E4
:102220000749096881F02001054A116007E0042888
:1022300005D10349096881F01001014A1160704716
:102240000C0C014070477047416851B14168491E0C
:10225000416031B9012141700178012901D18168C2
:102260004160704770B504460D46042C01DB00BF89
:10227000FEE70120FFF70AFC04EB44000C4901EBE8
:102280008000456004EB440001EB80008560002085
:1022900004EB4401064A02EB81014870012004EB83
:1022A000440102F821000020FFF7F0FB70BD0000A0
:1022B0005001002010B504462046FFF71DFC10BD5C
:1022C00010B504462046FFF739FC10BD00BF054A93
:1022D000128802F04002002AF9D0C2B2014B1B1D45
:1022E0001A8070470038014002460020012104E0B6
:1022F000535C0344D8B24B1CD9B20829F8DBC0F1B7
:10230000FF00431CD8B2704702460020012104E0C0
:10231000535C0344D8B24B1CD9B20829F8DBC0F196
:10232000FF00431CD8B270470EB5002600240027DA
:102330000025A046A146A246FFF75FFCFEF73AFE45
:10234000FEF710FEFFF728FDFFF78AFCFFF7D4FC2D
:10235000FFF7A4FCFFF756FDFFF7D4FC4FF4FA712A
:102360000020FFF77FFF4CE0FFF746FC00F044F948
:102370000020FFF7A7FB002843D02248007801285F
:1023800005D100201F4908704FF0010901E04FF00E
:1023900000091D480078012807D100201A4908705B
:1023A0004FF0010AFFF788FB03E04FF0000AFFF748
:1023B00079FBFEF76BF90446FEF794FD05464FF6F0
:1023C000FF70844200D027464FF6FF70854200D050
:1023D000A846FEF77DFB86B2304600F083FE8346BA
:1023E0003B465A4609488DE80007016808480068DE
:1023F00000F010F8FEF784FF18B1FFF74FFCFFF76D
:1024000001FDB1E722000020230000201C00002075
:10241000180000202DE9F04F8FB005460E461746F4
:102420009846DDE919ABDDF86090002462A103C98C
:10243000CDE90D0162A103C9CDE90B0162A103C978
:10244000CDE9090162A103C9CDE9070162A103C970
:10245000CDE9050162A103C9CDE9030162A103C968
:10246000CDE901016248056000BF08E0C4F1030046
:102470005F49095C201D0DAA1154601CC4B2042CD4
:10248000F4DB5B480660002408E0C4F1030058490F
:10249000095C201D0BAA1154601CC4B2042CF4DB8F
:1024A00053480760002408E0C4F103005049095C68
:1024B000201D09AA1154601CC4B2042CF4DB404650
:1024C00000F010FE4A490860002408E0C4F103004F
:1024D0004749095C201D07AA1154601CC4B2042C92
:1024E000F4DB484600F0FEFD41490860002408E0A6
:1024F000C4F103003E49095C201D05AA1154601C6B
:10250000C4B2042CF4DB504600F0ECFD38490860FE
:10251000002408E0C4F103003549095C201D03AA2A
:102520001154601CC4B2042CF4DB584600F0DAFDF0
:102530002F490860002408E0C4F103002C49095C1D
:10254000201D01AA1154601CC4B2042CF4DB3B20F2
:102550002849087103204871012088713820C8710A
:102560000846DDE90D12C0E90212DDE90B12C0E9EF
:102570000412DDE90912C0E90612DDE90712C0E91B
:102580000812DDE90512C0E90A12DDE90312C0E90B
:102590000C12DDE90112C0E90E120179401DFEF7AF
:1025A000B3F8144981F8400041211248FFF726F999
:1025B0000FB0BDE8F08F0000220001020000000013
:1025C00022000202000000002200040200000000BD
:1025D00022000502000000002200060200000000A8
:1025E000220003000000000022000700000000009D
:1025F0004C010020500000203EB5002500249948E1
:102600000078002876D098480588984800784428B3
:1026100071D1964840785A28FAD1944880784C284D
:10262000F6D19248C0780228F2D1A81F81B28F4813
:10263000401DFEF769F8691E8C4A515C8842E7D15B
:1026400010460179A81F8142E2D110464079012845
:102650007ED110468079012802D0022879D17DE010
:102660008248C079002878DD8048C079052874DA6E
:102670007E48C0798DF807007C48007A012806D092
:10268000022817D0032828D0042864D145E07749D0
:10269000C879FFF793FDFF208DF8080004210DF1A4
:1026A0000500FEF731F88DF809000A216846FFF7AA
:1026B000A5F851E06D49C879FFF762FD00208DF85B
:1026C000080004210DF10500FEF71EF88DF8090041
:1026D0000A216846FFF792F83EE06449C879FFF79F
:1026E0008BFD6249C879FFF769FD2CB900208DF890
:1026F000080006E0B4E0B0E0012C02D1FF208DF824
:10270000080004210DF10500FDF7FEFF8DF809001A
:102710000A216846FFF772F81EE09DF80700FFF7F0
:10272000F9FC04461CB900208DF8080004E0012CD7
:1027300002D1FF208DF8080004210DF10500FDF7FE
:10274000E3FF8DF809000A216846FFF757F803E018
:1027500081E07DE001E000BF00BF7AE04348C0793E
:10276000002874DD4148C079032870DA3F48C079F9
:102770008DF807003D48007A012806D0022817D0BE
:10278000032828D0042860D143E03849C879FFF7EE
:102790000FFA00208DF8080004210DF10500FDF767
:1027A000B3FF8DF809000A216846FFF727F84DE0CE
:1027B0002E49C879FFF7ECF9FF208DF808000421B5
:1027C0000DF10500FDF7A0FF8DF809000A2168460C
:1027D000FFF714F83AE02549C879FFF7F9F92349DA
:1027E000C879FFF7E5F91CB9FF208DF8080004E06F
:1027F000012C02D100208DF8080004210DF1050004
:10280000FDF782FF8DF809000A216846FEF7F6FF02
:102810001CE09DF80700FFF75DFC04461CB9FF2093
:102820008DF8080004E0012C02D100208DF808008A
:1028300004210DF10500FDF767FF8DF809000A215D
:102840006846FEF7DBFF01E001E000BF00BF00E0EB
:1028500000BF00BF00E000BF00BFFFF70BF900BFE3
:102860003EBD00001000002012000020800100206A
:1028700021F00042A2F16052B2F5801F01F0004346
:1028800028BFD2F17F6C0BD95FEA001C43EAC20279
:1028900042EB507018BF704728BF20F0010070470E
:1028A000B2F5801FBCBF184670474FEA410C1CF5BB
:1028B000001F02D2084600F0A3BC70B500F0C8FAB1
:1028C00000000089FFF7F6BF4FF00040A0F5800040
:1028D0007047000010B591EA030F48BF83F0004332
:1028E00000F11283841A71EB030C05D2121943EB29
:1028F0000C03001B61EB0C01DFF824E14FEA1154DB
:10290000A4EB135C1EEA430F18BF9EEA445F73D02A
:1029100023EA0E03DCF1200E21EA045143F4801374
:1029200032D322FA0CFE10EB0E0023FA0CFE41EB20
:102930000E01CCF1200E03FA0EFE10EB0E0051F149
:102940000001B1F5801FCCF1200E32D201EB045111
:1029500012FA0EF2BDE8104058BF7047401C38BF55
:102960005FEA420218BF7047002814BF20F0010040
:1029700041F100014FEA410313F5001F38BF7047D2
:10298000A1F1C04100F0B2BA012A43EB0302ACF15D
:10299000200CDCF11F0E32BF4FF0000E23FA0CF3B7
:1029A00010EB030041EB0451B4EB115FD0D0A1EB6D
:1029B000045101F5801149085FEA300001EB045130
:1029C0000ED350F1000038BF12FA0EFE08D1BDE858
:1029D0001040C9E7401C38BF5FEA4202CAD1C3E7D2
:1029E000BDE810404FEA410313F5001F38BF7047A0
:1029F000A1F1C04100F07ABA9EEA445F08D011EA22
:102A00005E0FBDE8104004BF01F000410020704798
:102A1000BDE8104070B500F01BFA00BF64FBBE3E7D
:102A20000000E0FF2DE9C04130B4DFF8A0C23CEA6D
:102A3000111418BF3CEA131400F0EC8081EA03057E
:102A40001CEA111444EAD57418BF1CEA131500F0EF
:102A5000C780A4EB05044FF0004545EAC12145EAD3
:102A6000C32341EA505143EA525304F17F7499421F
:102A700004F500344FEAC0204FEAC22208BF90425A
:102A800000F09C804FEA13650FF24016765D4FEA26
:102A9000134506FB05F7C7F1807706FB07F74FEAFA
:102AA000D737A7FB03687642C8F58038A7FB06CE68
:102AB00038BFA8F1010807FB08E64FF0000EA6FB9F
:102AC000028CE6FB03CEDCF1000CCEF1004E38BFE9
:102AD000AEF1010EA6FB0C584FF000074FF00005B9
:102AE000E6FB0E87A1FB08C6A0FB07CE16EB0E0681
:102AF00045F10005E1FB076515F1E04E7EBFA4F549
:102B000080345FEA46066D4116F1800745F1000505
:102B10004FEA17274FEA066647EA0567A6F1DE4641
:102B2000B6F1805F4FEA15251FD9384624F0010C15
:102B300005EBC471BCF1FE6F01EB0C1102D8F0BCC7
:102B4000BDE8008124425CBF01F5801E9EEAC47F7F
:102B500002D4F0BCBDE80081244238D4F0BCA1F11D
:102B6000C041BDE8004100F0C1B94FEAD22242EABB
:102B700043524FEAD323A7FB02864FEAD02040EA14
:102B8000415007FB03661EEA0E0F4FEAD12105FBF9
:102B9000026658BFA6EB0056B6EB00564FEA520E3F
:102BA0004EEAC37E18EB0E0E56EB530EBDD518EB56
:102BB00002085E417F1C55F10005B6E74FF4801511
:102BC0004FF000074FF000064FF00008ADE7F0BCF3
:102BD0004FF0000001F1C04101F00041BDE800816B
:102BE00011EA0C1F0CEA131500D00CE013EA0C1FBD
:102BF00000F025804FF00000F0BC81EA030101F0F5
:102C00000041BDE80081F0BCBDE8004181EA03015C
:102C100000F06CB9F0BCBDE8004170B500F018F9E7
:102C2000097EFC3E00F007B881EA03014FF0000086
:102C300001F00041704781EA030100F057B9F0BC90
:102C4000BDE800414FF0000021497047FFFDFBF94E
:102C5000F7F5F4F2F0EEEDEBE9E8E6E4E3E1E0DECF
:102C6000DDDBDAD8D7D5D4D3D1D0CFCDCCCBCAC841
:102C7000C7C6C5C4C2C1C0BFBEBDBCBBBAB9B8B768
:102C8000B6B5B4B3B2B1B0AFAEADACABAAA9A8A85B
:102C9000A7A6A5A4A3A3A2A1A09F9F9E9D9C9C9B29
:102CA0009A999998979796959594939392919190D4
:102CB0008F8F8E8E8D8C8C8B8B8A89898888878765
:102CC0008685858484838382828181800000FF07DA
:102CD0000000F87FB0FA80F310FA03F10AD0C3F1D4
:102CE0001D0303F580634FEA41504FEA035202EBA4
:102CF000D12170474FF0000070470000DFF848C155
:102D000070B51CEA111E1EBF1CEA13159EEA0C0FBB
:102D100095EA0C0F00F06F8081EA030423EA4C135C
:102D20004EEAD47E21EA4C1141F4801143F4801321
:102D3000AE44A1FB024CA0FB0365AEF17F7E3619C9
:102D400055EB0C05A1FB034C4CF10003A0FB021C4E
:102D500016EB0C06654153F10003094218BF46F01B
:102D6000010613F4007F0BD14FEA03314FEA05301F
:102D7000340341EA155140EA16506FF003020AE0AD
:102D80004FEAC3214FEAC520F40241EA555140EA17
:102D900056506FF0020202EB2E4201EB025585EA1B
:102DA000CE710AD05FEA440C18BF24F0004450F101
:102DB000000041F1000120EAD47040F2FE7C62453F
:102DC00000D270BDA84214BF4FF080444FF0404481
:102DD000002E08BF0024BEF1806FA8BFA1F1C04142
:102DE000BDE8704080F282804FF0000001F1C041E8
:102DF00001F0004170479EEA0C0F0CEA131518BF52
:102E000095EA0C0F06D04FF0000081EA030E0EF099
:102E1000004170BD00F01CF88900013E00F007B8C9
:102E200000F009B84FEA430C5FEA5C5C08D081EA25
:102E3000030100F05BB84FEA410C5FEA5C5CF6D13D
:102E40004FF00000014970470000FF070000F87FC5
:102E50000EF1020E2EF0030E5EF8046B364205D41E
:102E6000012A43EB030515F5001F12D8012841EB99
:102E7000010C1CF5001F0CD80ED14FEAD17C15F5C2
:102E8000001F0CEB4C0C0CF1020C08BF4CEBD37C7C
:102E900004E04FF0080C01E04FEAD37C0CEB4C054A
:102EA00026FA05F606F00706B6F1040C06D20EEB7C
:102EB000860CBDE870404CF0010C6047DFE80CF078
:102EC000090B02024FF000414FF00000A1F5002174
:102ED00070BD19461046012851EB010418BFD4F506
:102EE000001484BF002001F0004170BD0808A0F567
:102EF00000114FEA3101704710B591EA030F48BF46
:102F000083F000433FF5EEAC841A71EB030C07D25B
:102F100012198CF0004C43EB0C03001B61EB0C010D
:102F2000DFF8A4E14FEA1154A4EB135C1EEA430F4F
:102F300018BF9EEA445F00F0B08023EA6E0352425D
:102F400021EA0451C3EB6E0338BF5B1EDCF1200E97
:102F500025D322FA0CFE10EB0E0043FA0CFE41EBD7
:102F60000E01CCF1200E03FA0EFE10EB0E0051F113
:102F70000001CCF1200E29D412FA0EF201EB04511B
:102F8000BDE8104058BF7047401C1CBFB2F1004F55
:102F9000704700280CBF491C20F00100704712EB5D
:102FA000020E43EB030218BF4FF0010E4EEA42023D
:102FB000ACF1200CDCF11E0E54D943FA0CFE10EBE0
:102FC0000E0051F1FF31CCF11E0ED5D50EF1010EE0
:102FD00012FA0EFE404141EB010101EB445C5FEA55
:102FE0005C5C10D910EBDE7001EB045138BFBEF110
:102FF000004FBDE8104018BF704700280CBF491CA7
:1030000020F00100704730D24FEAD42C11F50011A6
:1030100024F400641BD0B1FA81F20B3AA41AA41E66
:10302000D2F12003914030FA03F31943904001EBB1
:10303000CC71002C01EB0451BDE81040A8BF7047D3
:1030400001F1C0414FF0000001F000417047B0FABB
:1030500080F310FA03F100D110BDE41A173C4805C3
:10306000C90AE4E701EB045110BD491001EB04511A
:10307000BDE810404FEA300002E04FF00001704719
:103080004A0008BF0042F8D0B2F5001F28BF7047C1
:1030900001F000414FF0000070479EEA445F07D006
:1030A00011EA5E0FBDE8104004BF00210020704708
:1030B000BDE8104070B5FFF7CBFE00BF40DFF63E25
:1030C00083F00041104670470000E0FF401058BFF9
:1030D000C0F14040491058BFC1F140418142EFF377
:1030E00000807047B0FA80F310FA03F2C3F19D0339
:1030F0000AD0D90501EB1220530638BF704700F102
:10310000010008BF20F001007047000050EA010CE8
:1031100000F113801CF5000F58BFBCF5000F01D45F
:103120008842704707D710F5000F58BF11F5000F00
:1031300015D488427047894270471CF5000F04D5AA
:10314000BCF5000FF7D5814270474FF0807C1CEB37
:10315000400F38BF1CEB410F01D28142704710B5C0
:1031600000F008F8922449004FF000504FF08051D1
:10317000FFF7ACBF0EF1020E2EF0030E5EF8044B0B
:10318000244204D44FEA4102B2F17F4F11D84FEAF2
:103190004003B3F17F4F0CD80ED14FEAD07CB2F18F
:1031A0007F4F0CEB4C0C0CF1020C08BF4CEBD17CAC
:1031B00004E04FF0080C01E04FEAD17C0CEB4C032B
:1031C00024FA03F404F00704B4F1040C06D20EEB65
:1031D000840CBDE810404CF0010C6047DFE80CF0B7
:1031E000070802024FF00040A0F5800010BD08461D
:1031F000420018BFD2F1807288BF00F0004010BDBD
:10320000FF2141EAD050C005704751EA000C00F19F
:1032100013801CF5000F58BFBCF5000F01D481428C
:10322000704707D711F5000F58BF10F5000F15D4E0
:1032300081427047894270471CF5000F04D5BCF5E8
:10324000000FF7D5884270474FF0807C1CEB410F90
:1032500038BF1CEB400F01D28842704780EA010062
:1032600081EA000180EA0100FFF779BFFF018600D3
:103270000000000079FF0186000000000079303175
:10328000323334353637383941424344454640308D
:10329000580030313233343536373839616263643F
:1032A000656640307800040000080000000000005F
:1032B0000002000100001000322EC3BF3530306D17
:1032C00073B6C1C8A1B9E2D5D5B6C8A1A2CEC2CA4B
:1032D000AAB6C8A1A2B6FED1F5BBAFCCBCC5A8B6F4
:1032E000C8A1A2504D322E35C5A8B6C8B2A2CFD4BF
:1032F000CABECAFDBEDDD0C5CFA20D0A0D0A0000B0
:1033000020330008000000205001000028010008C0
:103310004433000850010020280B000084010008FD
:10332000012984A24A046809010203040607080966
:103330000C6910000DF802040608445A4C023B03C5
:043340000138000050
:04000005080000ED02
:00000001FF
